{
  "contractName": "CryptoPosts",
  "abi": [
    {
      "inputs": [],
      "stateMutability": "nonpayable",
      "type": "constructor"
    },
    {
      "anonymous": false,
      "inputs": [
        {
          "indexed": true,
          "internalType": "address",
          "name": "owner",
          "type": "address"
        },
        {
          "indexed": true,
          "internalType": "address",
          "name": "approved",
          "type": "address"
        },
        {
          "indexed": true,
          "internalType": "uint256",
          "name": "tokenId",
          "type": "uint256"
        }
      ],
      "name": "Approval",
      "type": "event"
    },
    {
      "anonymous": false,
      "inputs": [
        {
          "indexed": true,
          "internalType": "address",
          "name": "owner",
          "type": "address"
        },
        {
          "indexed": true,
          "internalType": "address",
          "name": "operator",
          "type": "address"
        },
        {
          "indexed": false,
          "internalType": "bool",
          "name": "approved",
          "type": "bool"
        }
      ],
      "name": "ApprovalForAll",
      "type": "event"
    },
    {
      "anonymous": false,
      "inputs": [
        {
          "indexed": true,
          "internalType": "address",
          "name": "from",
          "type": "address"
        },
        {
          "indexed": true,
          "internalType": "address",
          "name": "to",
          "type": "address"
        },
        {
          "indexed": true,
          "internalType": "uint256",
          "name": "tokenId",
          "type": "uint256"
        }
      ],
      "name": "Transfer",
      "type": "event"
    },
    {
      "inputs": [
        {
          "internalType": "address",
          "name": "to",
          "type": "address"
        },
        {
          "internalType": "uint256",
          "name": "tokenId",
          "type": "uint256"
        }
      ],
      "name": "approve",
      "outputs": [],
      "stateMutability": "nonpayable",
      "type": "function"
    },
    {
      "inputs": [
        {
          "internalType": "uint256",
          "name": "",
          "type": "uint256"
        }
      ],
      "name": "auctions",
      "outputs": [
        {
          "internalType": "uint256",
          "name": "tokenId",
          "type": "uint256"
        },
        {
          "internalType": "address payable",
          "name": "seller",
          "type": "address"
        },
        {
          "internalType": "uint256",
          "name": "minValue",
          "type": "uint256"
        },
        {
          "internalType": "uint256",
          "name": "increment",
          "type": "uint256"
        },
        {
          "internalType": "uint256",
          "name": "endBlock",
          "type": "uint256"
        },
        {
          "internalType": "address",
          "name": "topBidder",
          "type": "address"
        }
      ],
      "stateMutability": "view",
      "type": "function",
      "constant": true
    },
    {
      "inputs": [
        {
          "internalType": "address",
          "name": "owner",
          "type": "address"
        }
      ],
      "name": "balanceOf",
      "outputs": [
        {
          "internalType": "uint256",
          "name": "",
          "type": "uint256"
        }
      ],
      "stateMutability": "view",
      "type": "function",
      "constant": true
    },
    {
      "inputs": [
        {
          "internalType": "uint256",
          "name": "",
          "type": "uint256"
        },
        {
          "internalType": "address",
          "name": "",
          "type": "address"
        }
      ],
      "name": "canMint",
      "outputs": [
        {
          "internalType": "bool",
          "name": "",
          "type": "bool"
        }
      ],
      "stateMutability": "view",
      "type": "function",
      "constant": true
    },
    {
      "inputs": [
        {
          "internalType": "address",
          "name": "",
          "type": "address"
        },
        {
          "internalType": "uint256",
          "name": "",
          "type": "uint256"
        }
      ],
      "name": "collections",
      "outputs": [
        {
          "internalType": "uint256",
          "name": "",
          "type": "uint256"
        }
      ],
      "stateMutability": "view",
      "type": "function",
      "constant": true
    },
    {
      "inputs": [],
      "name": "counter",
      "outputs": [
        {
          "internalType": "uint256",
          "name": "",
          "type": "uint256"
        }
      ],
      "stateMutability": "view",
      "type": "function",
      "constant": true
    },
    {
      "inputs": [
        {
          "internalType": "uint256",
          "name": "",
          "type": "uint256"
        },
        {
          "internalType": "address",
          "name": "",
          "type": "address"
        }
      ],
      "name": "funds",
      "outputs": [
        {
          "internalType": "uint256",
          "name": "",
          "type": "uint256"
        }
      ],
      "stateMutability": "view",
      "type": "function",
      "constant": true
    },
    {
      "inputs": [
        {
          "internalType": "uint256",
          "name": "tokenId",
          "type": "uint256"
        }
      ],
      "name": "getApproved",
      "outputs": [
        {
          "internalType": "address",
          "name": "",
          "type": "address"
        }
      ],
      "stateMutability": "view",
      "type": "function",
      "constant": true
    },
    {
      "inputs": [
        {
          "internalType": "address",
          "name": "owner",
          "type": "address"
        },
        {
          "internalType": "address",
          "name": "operator",
          "type": "address"
        }
      ],
      "name": "isApprovedForAll",
      "outputs": [
        {
          "internalType": "bool",
          "name": "",
          "type": "bool"
        }
      ],
      "stateMutability": "view",
      "type": "function",
      "constant": true
    },
    {
      "inputs": [],
      "name": "name",
      "outputs": [
        {
          "internalType": "string",
          "name": "",
          "type": "string"
        }
      ],
      "stateMutability": "view",
      "type": "function",
      "constant": true
    },
    {
      "inputs": [
        {
          "internalType": "uint256",
          "name": "tokenId",
          "type": "uint256"
        }
      ],
      "name": "ownerOf",
      "outputs": [
        {
          "internalType": "address",
          "name": "",
          "type": "address"
        }
      ],
      "stateMutability": "view",
      "type": "function",
      "constant": true
    },
    {
      "inputs": [
        {
          "internalType": "uint256",
          "name": "",
          "type": "uint256"
        }
      ],
      "name": "posts",
      "outputs": [
        {
          "internalType": "string",
          "name": "cid",
          "type": "string"
        },
        {
          "internalType": "address",
          "name": "author",
          "type": "address"
        },
        {
          "internalType": "uint256",
          "name": "root",
          "type": "uint256"
        }
      ],
      "stateMutability": "view",
      "type": "function",
      "constant": true
    },
    {
      "inputs": [
        {
          "internalType": "uint256",
          "name": "",
          "type": "uint256"
        }
      ],
      "name": "price",
      "outputs": [
        {
          "internalType": "uint256",
          "name": "",
          "type": "uint256"
        }
      ],
      "stateMutability": "view",
      "type": "function",
      "constant": true
    },
    {
      "inputs": [
        {
          "internalType": "address",
          "name": "from",
          "type": "address"
        },
        {
          "internalType": "address",
          "name": "to",
          "type": "address"
        },
        {
          "internalType": "uint256",
          "name": "tokenId",
          "type": "uint256"
        }
      ],
      "name": "safeTransferFrom",
      "outputs": [],
      "stateMutability": "nonpayable",
      "type": "function"
    },
    {
      "inputs": [
        {
          "internalType": "address",
          "name": "from",
          "type": "address"
        },
        {
          "internalType": "address",
          "name": "to",
          "type": "address"
        },
        {
          "internalType": "uint256",
          "name": "tokenId",
          "type": "uint256"
        },
        {
          "internalType": "bytes",
          "name": "_data",
          "type": "bytes"
        }
      ],
      "name": "safeTransferFrom",
      "outputs": [],
      "stateMutability": "nonpayable",
      "type": "function"
    },
    {
      "inputs": [
        {
          "internalType": "address",
          "name": "operator",
          "type": "address"
        },
        {
          "internalType": "bool",
          "name": "approved",
          "type": "bool"
        }
      ],
      "name": "setApprovalForAll",
      "outputs": [],
      "stateMutability": "nonpayable",
      "type": "function"
    },
    {
      "inputs": [
        {
          "internalType": "bytes4",
          "name": "interfaceId",
          "type": "bytes4"
        }
      ],
      "name": "supportsInterface",
      "outputs": [
        {
          "internalType": "bool",
          "name": "",
          "type": "bool"
        }
      ],
      "stateMutability": "view",
      "type": "function",
      "constant": true
    },
    {
      "inputs": [],
      "name": "symbol",
      "outputs": [
        {
          "internalType": "string",
          "name": "",
          "type": "string"
        }
      ],
      "stateMutability": "view",
      "type": "function",
      "constant": true
    },
    {
      "inputs": [
        {
          "internalType": "uint256",
          "name": "",
          "type": "uint256"
        },
        {
          "internalType": "uint256",
          "name": "",
          "type": "uint256"
        }
      ],
      "name": "tokenAuctions",
      "outputs": [
        {
          "internalType": "uint256",
          "name": "",
          "type": "uint256"
        }
      ],
      "stateMutability": "view",
      "type": "function",
      "constant": true
    },
    {
      "inputs": [
        {
          "internalType": "uint256",
          "name": "",
          "type": "uint256"
        }
      ],
      "name": "tokenPost",
      "outputs": [
        {
          "internalType": "uint256",
          "name": "",
          "type": "uint256"
        }
      ],
      "stateMutability": "view",
      "type": "function",
      "constant": true
    },
    {
      "inputs": [
        {
          "internalType": "address",
          "name": "from",
          "type": "address"
        },
        {
          "internalType": "address",
          "name": "to",
          "type": "address"
        },
        {
          "internalType": "uint256",
          "name": "tokenId",
          "type": "uint256"
        }
      ],
      "name": "transferFrom",
      "outputs": [],
      "stateMutability": "nonpayable",
      "type": "function"
    },
    {
      "inputs": [
        {
          "internalType": "uint256",
          "name": "tokenId",
          "type": "uint256"
        }
      ],
      "name": "tokenURI",
      "outputs": [
        {
          "internalType": "string",
          "name": "",
          "type": "string"
        }
      ],
      "stateMutability": "view",
      "type": "function",
      "constant": true
    },
    {
      "inputs": [
        {
          "internalType": "string",
          "name": "newCid",
          "type": "string"
        }
      ],
      "name": "publishPost",
      "outputs": [],
      "stateMutability": "nonpayable",
      "type": "function"
    },
    {
      "inputs": [
        {
          "internalType": "string",
          "name": "newCid",
          "type": "string"
        },
        {
          "internalType": "uint256",
          "name": "rootId",
          "type": "uint256"
        }
      ],
      "name": "publishPost",
      "outputs": [],
      "stateMutability": "nonpayable",
      "type": "function"
    },
    {
      "inputs": [
        {
          "internalType": "uint256",
          "name": "postId",
          "type": "uint256"
        }
      ],
      "name": "mintToken",
      "outputs": [],
      "stateMutability": "nonpayable",
      "type": "function"
    },
    {
      "inputs": [],
      "name": "postsLenght",
      "outputs": [
        {
          "internalType": "uint256",
          "name": "",
          "type": "uint256"
        }
      ],
      "stateMutability": "view",
      "type": "function",
      "constant": true
    },
    {
      "inputs": [
        {
          "internalType": "uint256",
          "name": "postId",
          "type": "uint256"
        }
      ],
      "name": "postCid",
      "outputs": [
        {
          "internalType": "string",
          "name": "",
          "type": "string"
        }
      ],
      "stateMutability": "view",
      "type": "function",
      "constant": true
    },
    {
      "inputs": [
        {
          "internalType": "uint256",
          "name": "postId",
          "type": "uint256"
        }
      ],
      "name": "postAuthor",
      "outputs": [
        {
          "internalType": "address",
          "name": "",
          "type": "address"
        }
      ],
      "stateMutability": "view",
      "type": "function",
      "constant": true
    },
    {
      "inputs": [
        {
          "internalType": "uint256",
          "name": "postId",
          "type": "uint256"
        }
      ],
      "name": "postRoot",
      "outputs": [
        {
          "internalType": "uint256",
          "name": "",
          "type": "uint256"
        }
      ],
      "stateMutability": "view",
      "type": "function",
      "constant": true
    },
    {
      "inputs": [
        {
          "internalType": "uint256",
          "name": "postId",
          "type": "uint256"
        }
      ],
      "name": "postDerivatives",
      "outputs": [
        {
          "internalType": "uint256",
          "name": "",
          "type": "uint256"
        }
      ],
      "stateMutability": "view",
      "type": "function",
      "constant": true
    },
    {
      "inputs": [
        {
          "internalType": "uint256",
          "name": "postId",
          "type": "uint256"
        }
      ],
      "name": "postDerivativeList",
      "outputs": [
        {
          "internalType": "uint256[]",
          "name": "",
          "type": "uint256[]"
        }
      ],
      "stateMutability": "view",
      "type": "function",
      "constant": true
    },
    {
      "inputs": [
        {
          "internalType": "uint256",
          "name": "postId",
          "type": "uint256"
        },
        {
          "internalType": "uint256",
          "name": "derivativeNumber",
          "type": "uint256"
        }
      ],
      "name": "derivativeId",
      "outputs": [
        {
          "internalType": "uint256",
          "name": "",
          "type": "uint256"
        }
      ],
      "stateMutability": "view",
      "type": "function",
      "constant": true
    },
    {
      "inputs": [
        {
          "internalType": "uint256",
          "name": "postId",
          "type": "uint256"
        }
      ],
      "name": "postTokens",
      "outputs": [
        {
          "internalType": "uint256",
          "name": "",
          "type": "uint256"
        }
      ],
      "stateMutability": "view",
      "type": "function",
      "constant": true
    },
    {
      "inputs": [
        {
          "internalType": "uint256",
          "name": "postId",
          "type": "uint256"
        }
      ],
      "name": "postTokenList",
      "outputs": [
        {
          "internalType": "uint256[]",
          "name": "",
          "type": "uint256[]"
        }
      ],
      "stateMutability": "view",
      "type": "function",
      "constant": true
    },
    {
      "inputs": [
        {
          "internalType": "address",
          "name": "authorAddress",
          "type": "address"
        }
      ],
      "name": "authorCollection",
      "outputs": [
        {
          "internalType": "uint256[]",
          "name": "",
          "type": "uint256[]"
        }
      ],
      "stateMutability": "view",
      "type": "function",
      "constant": true
    },
    {
      "inputs": [
        {
          "internalType": "uint256",
          "name": "tokenId",
          "type": "uint256"
        },
        {
          "internalType": "uint256",
          "name": "askPrice",
          "type": "uint256"
        }
      ],
      "name": "addSale",
      "outputs": [],
      "stateMutability": "nonpayable",
      "type": "function"
    },
    {
      "inputs": [
        {
          "internalType": "uint256",
          "name": "tokenId",
          "type": "uint256"
        }
      ],
      "name": "removeSale",
      "outputs": [],
      "stateMutability": "nonpayable",
      "type": "function"
    },
    {
      "inputs": [
        {
          "internalType": "uint256",
          "name": "tokenId",
          "type": "uint256"
        }
      ],
      "name": "buy",
      "outputs": [],
      "stateMutability": "payable",
      "type": "function",
      "payable": true
    },
    {
      "inputs": [
        {
          "internalType": "uint256",
          "name": "tokenId",
          "type": "uint256"
        }
      ],
      "name": "validPrice",
      "outputs": [
        {
          "internalType": "uint256",
          "name": "",
          "type": "uint256"
        }
      ],
      "stateMutability": "view",
      "type": "function",
      "constant": true
    },
    {
      "inputs": [
        {
          "internalType": "uint256",
          "name": "tokenId",
          "type": "uint256"
        },
        {
          "internalType": "uint256",
          "name": "minValue",
          "type": "uint256"
        },
        {
          "internalType": "uint256",
          "name": "increment",
          "type": "uint256"
        }
      ],
      "name": "startAuction",
      "outputs": [],
      "stateMutability": "nonpayable",
      "type": "function"
    },
    {
      "inputs": [
        {
          "internalType": "uint256",
          "name": "auctionId",
          "type": "uint256"
        }
      ],
      "name": "placeBid",
      "outputs": [],
      "stateMutability": "payable",
      "type": "function",
      "payable": true
    },
    {
      "inputs": [
        {
          "internalType": "uint256",
          "name": "auctionId",
          "type": "uint256"
        }
      ],
      "name": "withdrawFunds",
      "outputs": [],
      "stateMutability": "nonpayable",
      "type": "function"
    },
    {
      "inputs": [
        {
          "internalType": "uint256",
          "name": "auctionId",
          "type": "uint256"
        }
      ],
      "name": "withdrawPrize",
      "outputs": [],
      "stateMutability": "nonpayable",
      "type": "function"
    },
    {
      "inputs": [
        {
          "internalType": "uint256",
          "name": "tokenId",
          "type": "uint256"
        }
      ],
      "name": "tokenAuctionCollection",
      "outputs": [
        {
          "internalType": "uint256[]",
          "name": "",
          "type": "uint256[]"
        }
      ],
      "stateMutability": "view",
      "type": "function",
      "constant": true
    },
    {
      "inputs": [],
      "name": "auctionsLenght",
      "outputs": [
        {
          "internalType": "uint256",
          "name": "",
          "type": "uint256"
        }
      ],
      "stateMutability": "view",
      "type": "function",
      "constant": true
    },
    {
      "inputs": [
        {
          "internalType": "uint256",
          "name": "auctionId",
          "type": "uint256"
        }
      ],
      "name": "auctionTokenId",
      "outputs": [
        {
          "internalType": "uint256",
          "name": "",
          "type": "uint256"
        }
      ],
      "stateMutability": "view",
      "type": "function",
      "constant": true
    },
    {
      "inputs": [
        {
          "internalType": "uint256",
          "name": "auctionId",
          "type": "uint256"
        }
      ],
      "name": "auctionSeller",
      "outputs": [
        {
          "internalType": "address",
          "name": "",
          "type": "address"
        }
      ],
      "stateMutability": "view",
      "type": "function",
      "constant": true
    },
    {
      "inputs": [
        {
          "internalType": "uint256",
          "name": "auctionId",
          "type": "uint256"
        }
      ],
      "name": "auctionMinValue",
      "outputs": [
        {
          "internalType": "uint256",
          "name": "",
          "type": "uint256"
        }
      ],
      "stateMutability": "view",
      "type": "function",
      "constant": true
    },
    {
      "inputs": [
        {
          "internalType": "uint256",
          "name": "auctionId",
          "type": "uint256"
        }
      ],
      "name": "auctionIncrement",
      "outputs": [
        {
          "internalType": "uint256",
          "name": "",
          "type": "uint256"
        }
      ],
      "stateMutability": "view",
      "type": "function",
      "constant": true
    },
    {
      "inputs": [
        {
          "internalType": "uint256",
          "name": "auctionId",
          "type": "uint256"
        }
      ],
      "name": "auctionTimeLeft",
      "outputs": [
        {
          "internalType": "uint256",
          "name": "",
          "type": "uint256"
        }
      ],
      "stateMutability": "view",
      "type": "function",
      "constant": true
    },
    {
      "inputs": [
        {
          "internalType": "uint256",
          "name": "auctionId",
          "type": "uint256"
        }
      ],
      "name": "auctionTopBidder",
      "outputs": [
        {
          "internalType": "address",
          "name": "",
          "type": "address"
        }
      ],
      "stateMutability": "view",
      "type": "function",
      "constant": true
    },
    {
      "inputs": [
        {
          "internalType": "uint256",
          "name": "auctionId",
          "type": "uint256"
        }
      ],
      "name": "auctionBids",
      "outputs": [
        {
          "internalType": "uint256[]",
          "name": "",
          "type": "uint256[]"
        }
      ],
      "stateMutability": "view",
      "type": "function",
      "constant": true
    }
  ],
  "bytecode": "0x60806040523480156200001157600080fd5b506040518060400160405280600b81526020017f43727970746f506f7374730000000000000000000000000000000000000000008152506040518060400160405280600381526020017f4350540000000000000000000000000000000000000000000000000000000000815250816000908051906020019062000096929190620001ff565b508060019080519060200190620000af929190620001ff565b50505060066000815480929190620000c79062000341565b919050555060608060076040518060a001604052806040518060200160405280600081525081526020013373ffffffffffffffffffffffffffffffffffffffff16815260200160008152602001848152602001838152509080600181540180825580915050600190039060005260206000209060050201600090919091909150600082015181600001908051906020019062000165929190620001ff565b5060208201518160010160006101000a81548173ffffffffffffffffffffffffffffffffffffffff021916908373ffffffffffffffffffffffffffffffffffffffff160217905550604082015181600201556060820151816003019080519060200190620001d592919062000290565b506080820151816004019080519060200190620001f492919062000290565b5050505050620003ed565b8280546200020d906200030b565b90600052602060002090601f0160209004810192826200023157600085556200027d565b82601f106200024c57805160ff19168380011785556200027d565b828001600101855582156200027d579182015b828111156200027c5782518255916020019190600101906200025f565b5b5090506200028c9190620002e2565b5090565b828054828255906000526020600020908101928215620002cf579160200282015b82811115620002ce578251825591602001919060010190620002b1565b5b509050620002de9190620002e2565b5090565b5b80821115620002fd576000816000905550600101620002e3565b5090565b6000819050919050565b600060028204905060018216806200032457607f821691505b602082108114156200033b576200033a620003be565b5b50919050565b60006200034e8262000301565b91507fffffffffffffffffffffffffffffffffffffffffffffffffffffffffffffffff8214156200038457620003836200038f565b5b600182019050919050565b7f4e487b7100000000000000000000000000000000000000000000000000000000600052601160045260246000fd5b7f4e487b7100000000000000000000000000000000000000000000000000000000600052602260045260246000fd5b615cf180620003fd6000396000f3fe6080604052600436106102ff5760003560e01c806370a0823111610190578063b829d85d116100dc578063c634d03211610095578063d798b8da1161006f578063d798b8da14610cfc578063d96a094a14610d39578063e985e9c514610d55578063fafc4f8a14610d92576102ff565b8063c634d03214610c59578063c84d966514610c82578063c87b56dd14610cbf576102ff565b8063b829d85d14610b27578063b88d4fde14610b64578063ba39c04414610b8d578063bfd7fd3e14610bca578063c20eec7b14610c07578063c571946314610c30576102ff565b80639979ef4511610149578063a22cb46511610123578063a22cb46514610a5b578063a2a49d7a14610a84578063b51b3fe914610ac1578063b7c1d87f14610aea576102ff565b80639979ef45146109c55780639a5f277f146109e1578063a0ec013314610a1e576102ff565b806370a08231146108a35780637d025a62146108e057806384b8e3dd146109095780638f4e76b91461093457806391e078bb1461097157806395d89b411461099a576102ff565b806344e797e91161024f5780635b0681d21161020857806363a12fd5116101e257806363a12fd5146107af57806369096b53146107ec5780636c826776146108295780636f316ac214610866576102ff565b80635b0681d21461070a57806361bc221a146107475780636352211e14610772576102ff565b806344e797e9146105bd57806349a764cd146105e657806349d8be671461062357806350ee320d14610660578063571a26a01461068b5780635896b178146106cd576102ff565b80631833ca59116102bc57806326a49e371161029657806326a49e37146104dd578063277517ae1461051a5780632f8df4a01461055757806342842e0e14610594576102ff565b80631833ca591461043a5780631c12b54f1461047757806323b872dd146104b4576102ff565b806301ffc9a71461030457806306fdde0314610341578063081812fc1461036c578063095ea7b3146103a95780630b1e7f83146103d2578063155dd5ee14610411575b600080fd5b34801561031057600080fd5b5061032b60048036038101906103269190614c80565b610dcf565b6040516103389190615635565b60405180910390f35b34801561034d57600080fd5b50610356610eb1565b6040516103639190615650565b60405180910390f35b34801561037857600080fd5b50610393600480360381019061038e9190614d6f565b610f43565b6040516103a0919061553e565b60405180910390f35b3480156103b557600080fd5b506103d060048036038101906103cb9190614c44565b610fc8565b005b3480156103de57600080fd5b506103f960048036038101906103f49190614d6f565b6110e0565b60405161040893929190615672565b60405180910390f35b34801561041d57600080fd5b5061043860048036038101906104339190614d6f565b6111c2565b005b34801561044657600080fd5b50610461600480360381019061045c9190614d6f565b611423565b60405161046e9190615613565b60405180910390f35b34801561048357600080fd5b5061049e60048036038101906104999190614d6f565b61148e565b6040516104ab9190615850565b60405180910390f35b3480156104c057600080fd5b506104db60048036038101906104d69190614b3e565b6114a6565b005b3480156104e957600080fd5b5061050460048036038101906104ff9190614d6f565b611506565b6040516105119190615850565b60405180910390f35b34801561052657600080fd5b50610541600480360381019061053c9190614d6f565b61151e565b60405161054e9190615850565b60405180910390f35b34801561056357600080fd5b5061057e60048036038101906105799190614d98565b61159d565b60405161058b9190615850565b60405180910390f35b3480156105a057600080fd5b506105bb60048036038101906105b69190614b3e565b6115c2565b005b3480156105c957600080fd5b506105e460048036038101906105df9190614d6f565b6115e2565b005b3480156105f257600080fd5b5061060d60048036038101906106089190614c44565b61166d565b60405161061a9190615850565b60405180910390f35b34801561062f57600080fd5b5061064a60048036038101906106459190614d6f565b61169e565b6040516106579190615850565b60405180910390f35b34801561066c57600080fd5b50610675611716565b6040516106829190615850565b60405180910390f35b34801561069757600080fd5b506106b260048036038101906106ad9190614d6f565b611723565b6040516106c49695949392919061586b565b60405180910390f35b3480156106d957600080fd5b506106f460048036038101906106ef9190614d6f565b6117af565b6040516107019190615850565b60405180910390f35b34801561071657600080fd5b50610731600480360381019061072c9190614d6f565b611804565b60405161073e9190615613565b60405180910390f35b34801561075357600080fd5b5061075c6118c7565b6040516107699190615850565b60405180910390f35b34801561077e57600080fd5b5061079960048036038101906107949190614d6f565b6118cd565b6040516107a6919061553e565b60405180910390f35b3480156107bb57600080fd5b506107d660048036038101906107d19190614d6f565b61197f565b6040516107e39190615613565b60405180910390f35b3480156107f857600080fd5b50610813600480360381019061080e9190614dd4565b611a42565b6040516108209190615850565b60405180910390f35b34801561083557600080fd5b50610850600480360381019061084b9190614d6f565b611afa565b60405161085d9190615850565b60405180910390f35b34801561087257600080fd5b5061088d60048036038101906108889190614d6f565b611b72565b60405161089a9190615850565b60405180910390f35b3480156108af57600080fd5b506108ca60048036038101906108c59190614ad9565b611bc7565b6040516108d79190615850565b60405180910390f35b3480156108ec57600080fd5b5061090760048036038101906109029190614dd4565b611c7f565b005b34801561091557600080fd5b5061091e611ce7565b60405161092b9190615850565b60405180910390f35b34801561094057600080fd5b5061095b60048036038101906109569190614d98565b611cf4565b6040516109689190615635565b60405180910390f35b34801561097d57600080fd5b5061099860048036038101906109939190614e10565b611d23565b005b3480156109a657600080fd5b506109af611f45565b6040516109bc9190615650565b60405180910390f35b6109df60048036038101906109da9190614d6f565b611fd7565b005b3480156109ed57600080fd5b50610a086004803603810190610a039190614d6f565b612597565b604051610a15919061553e565b60405180910390f35b348015610a2a57600080fd5b50610a456004803603810190610a409190614d6f565b61262c565b604051610a529190615850565b60405180910390f35b348015610a6757600080fd5b50610a826004803603810190610a7d9190614c08565b6126a1565b005b348015610a9057600080fd5b50610aab6004803603810190610aa69190614ad9565b612822565b604051610ab89190615613565b60405180910390f35b348015610acd57600080fd5b50610ae86004803603810190610ae39190614d17565b6128b9565b005b348015610af657600080fd5b50610b116004803603810190610b0c9190614d6f565b612b1b565b604051610b1e919061553e565b60405180910390f35b348015610b3357600080fd5b50610b4e6004803603810190610b499190614dd4565b612b90565b604051610b5b9190615850565b60405180910390f35b348015610b7057600080fd5b50610b8b6004803603810190610b869190614b8d565b612bc1565b005b348015610b9957600080fd5b50610bb46004803603810190610baf9190614d6f565b612c23565b604051610bc1919061553e565b60405180910390f35b348015610bd657600080fd5b50610bf16004803603810190610bec9190614d6f565b612c98565b604051610bfe9190615650565b60405180910390f35b348015610c1357600080fd5b50610c2e6004803603810190610c299190614d6f565b612d95565b005b348015610c3c57600080fd5b50610c576004803603810190610c529190614cd2565b613532565b005b348015610c6557600080fd5b50610c806004803603810190610c7b9190614d6f565b6136fd565b005b348015610c8e57600080fd5b50610ca96004803603810190610ca49190614d6f565b613982565b604051610cb69190615613565b60405180910390f35b348015610ccb57600080fd5b50610ce66004803603810190610ce19190614d6f565b613a25565b604051610cf39190615650565b60405180910390f35b348015610d0857600080fd5b50610d236004803603810190610d1e9190614d6f565b613abd565b604051610d309190615850565b60405180910390f35b610d536004803603810190610d4e9190614d6f565b613b7a565b005b348015610d6157600080fd5b50610d7c6004803603810190610d779190614b02565b613cdf565b604051610d899190615635565b60405180910390f35b348015610d9e57600080fd5b50610db96004803603810190610db49190614d6f565b613d73565b604051610dc69190615850565b60405180910390f35b60007f80ac58cd000000000000000000000000000000000000000000000000000000007bffffffffffffffffffffffffffffffffffffffffffffffffffffffff1916827bffffffffffffffffffffffffffffffffffffffffffffffffffffffff19161480610e9a57507f5b5e139f000000000000000000000000000000000000000000000000000000007bffffffffffffffffffffffffffffffffffffffffffffffffffffffff1916827bffffffffffffffffffffffffffffffffffffffffffffffffffffffff1916145b80610eaa5750610ea982613dc8565b5b9050919050565b606060008054610ec090615b46565b80601f0160208091040260200160405190810160405280929190818152602001828054610eec90615b46565b8015610f395780601f10610f0e57610100808354040283529160200191610f39565b820191906000526020600020905b815481529060010190602001808311610f1c57829003601f168201915b5050505050905090565b6000610f4e82613e32565b610f8d576040517f08c379a0000000000000000000000000000000000000000000000000000000008152600401610f84906157d0565b60405180910390fd5b6004600083815260200190815260200160002060009054906101000a900473ffffffffffffffffffffffffffffffffffffffff169050919050565b6000610fd3826118cd565b90508073ffffffffffffffffffffffffffffffffffffffff168373ffffffffffffffffffffffffffffffffffffffff161415611044576040517f08c379a000000000000000000000000000000000000000000000000000000000815260040161103b90615810565b60405180910390fd5b8073ffffffffffffffffffffffffffffffffffffffff16611063613e9e565b73ffffffffffffffffffffffffffffffffffffffff16148061109257506110918161108c613e9e565b613cdf565b5b6110d1576040517f08c379a00000000000000000000000000000000000000000000000000000000081526004016110c890615750565b60405180910390fd5b6110db8383613ea6565b505050565b600781815481106110f057600080fd5b906000526020600020906005020160009150905080600001805461111390615b46565b80601f016020809104026020016040519081016040528092919081815260200182805461113f90615b46565b801561118c5780601f106111615761010080835404028352916020019161118c565b820191906000526020600020905b81548152906001019060200180831161116f57829003601f168201915b5050505050908060010160009054906101000a900473ffffffffffffffffffffffffffffffffffffffff16908060020154905083565b8060088054905081106111d457600080fd5b436008828154811061120f577f4e487b7100000000000000000000000000000000000000000000000000000000600052603260045260246000fd5b9060005260206000209060070201600401541061122b57600080fd5b60088281548110611265577f4e487b7100000000000000000000000000000000000000000000000000000000600052603260045260246000fd5b906000526020600020906007020160050160009054906101000a900473ffffffffffffffffffffffffffffffffffffffff1673ffffffffffffffffffffffffffffffffffffffff163373ffffffffffffffffffffffffffffffffffffffff1614156112cf57600080fd5b6000600d600084815260200190815260200160002060003373ffffffffffffffffffffffffffffffffffffffff1673ffffffffffffffffffffffffffffffffffffffff168152602001908152602001600020541161132c57600080fd5b6000600d600084815260200190815260200160002060003373ffffffffffffffffffffffffffffffffffffffff1673ffffffffffffffffffffffffffffffffffffffff1681526020019081526020016000205490506000600d600085815260200190815260200160002060003373ffffffffffffffffffffffffffffffffffffffff1673ffffffffffffffffffffffffffffffffffffffff168152602001908152602001600020819055503373ffffffffffffffffffffffffffffffffffffffff166108fc829081150290604051600060405180830381858888f1935050505015801561141d573d6000803e3d6000fd5b50505050565b6060600c600083815260200190815260200160002080548060200260200160405190810160405280929190818152602001828054801561148257602002820191906000526020600020905b81548152602001906001019080831161146e575b50505050509050919050565b600a6020528060005260406000206000915090505481565b6114b76114b1613e9e565b82613f5f565b6114f6576040517f08c379a00000000000000000000000000000000000000000000000000000000081526004016114ed90615830565b60405180910390fd5b61150183838361403d565b505050565b600b6020528060005260406000206000915090505481565b6000816000600b6000838152602001908152602001600020541161154157600080fd5b3073ffffffffffffffffffffffffffffffffffffffff1661156184610f43565b73ffffffffffffffffffffffffffffffffffffffff161461158157600080fd5b600b600084815260200190815260200160002054915050919050565b600d602052816000526040600020602052806000526040600020600091509150505481565b6115dd83838360405180602001604052806000815250612bc1565b505050565b803373ffffffffffffffffffffffffffffffffffffffff16611603826118cd565b73ffffffffffffffffffffffffffffffffffffffff161461162357600080fd5b816000600b6000838152602001908152602001600020541161164457600080fd5b61164f600084610fc8565b6000600b600085815260200190815260200160002081905550505050565b6009602052816000526040600020818154811061168957600080fd5b90600052602060002001600091509150505481565b600081600780549050811080156116b6575060008114155b6116bf57600080fd5b600783815481106116f9577f4e487b7100000000000000000000000000000000000000000000000000000000600052603260045260246000fd5b906000526020600020906005020160030180549050915050919050565b6000600880549050905090565b6008818154811061173357600080fd5b90600052602060002090600702016000915090508060000154908060010160009054906101000a900473ffffffffffffffffffffffffffffffffffffffff16908060020154908060030154908060040154908060050160009054906101000a900473ffffffffffffffffffffffffffffffffffffffff16905086565b6000600882815481106117eb577f4e487b7100000000000000000000000000000000000000000000000000000000600052603260045260246000fd5b9060005260206000209060070201600001549050919050565b6060816007805490508110801561181c575060008114155b61182557600080fd5b6007838154811061185f577f4e487b7100000000000000000000000000000000000000000000000000000000600052603260045260246000fd5b90600052602060002090600502016004018054806020026020016040519081016040528092919081815260200182805480156118ba57602002820191906000526020600020905b8154815260200190600101908083116118a6575b5050505050915050919050565b60065481565b6000806002600084815260200190815260200160002060009054906101000a900473ffffffffffffffffffffffffffffffffffffffff169050600073ffffffffffffffffffffffffffffffffffffffff168173ffffffffffffffffffffffffffffffffffffffff161415611976576040517f08c379a000000000000000000000000000000000000000000000000000000000815260040161196d90615790565b60405180910390fd5b80915050919050565b60608160078054905081108015611997575060008114155b6119a057600080fd5b600783815481106119da577f4e487b7100000000000000000000000000000000000000000000000000000000600052603260045260246000fd5b9060005260206000209060050201600301805480602002602001604051908101604052809291908181526020018280548015611a3557602002820191906000526020600020905b815481526020019060010190808311611a21575b5050505050915050919050565b60008260078054905081108015611a5a575060008114155b611a6357600080fd5b60078481548110611a9d577f4e487b7100000000000000000000000000000000000000000000000000000000600052603260045260246000fd5b90600052602060002090600502016003018381548110611ae6577f4e487b7100000000000000000000000000000000000000000000000000000000600052603260045260246000fd5b906000526020600020015491505092915050565b60008160078054905081108015611b12575060008114155b611b1b57600080fd5b60078381548110611b55577f4e487b7100000000000000000000000000000000000000000000000000000000600052603260045260246000fd5b906000526020600020906005020160040180549050915050919050565b600060088281548110611bae577f4e487b7100000000000000000000000000000000000000000000000000000000600052603260045260246000fd5b9060005260206000209060070201600301549050919050565b60008073ffffffffffffffffffffffffffffffffffffffff168273ffffffffffffffffffffffffffffffffffffffff161415611c38576040517f08c379a0000000000000000000000000000000000000000000000000000000008152600401611c2f90615770565b60405180910390fd5b600360008373ffffffffffffffffffffffffffffffffffffffff1673ffffffffffffffffffffffffffffffffffffffff168152602001908152602001600020549050919050565b813373ffffffffffffffffffffffffffffffffffffffff16611ca0826118cd565b73ffffffffffffffffffffffffffffffffffffffff1614611cc057600080fd5b611cca3084610fc8565b81600b600085815260200190815260200160002081905550505050565b6000600780549050905090565b600e6020528160005260406000206020528060005260406000206000915091509054906101000a900460ff1681565b823373ffffffffffffffffffffffffffffffffffffffff16611d44826118cd565b73ffffffffffffffffffffffffffffffffffffffff1614611d6457600080fd5b6000600b60008681526020019081526020016000205414611d8457600080fd5b611d8f3330866114a6565b6060600c6000868152602001908152602001600020600880549050908060018154018082558091505060019003906000526020600020016000909190919091505560086040518060e001604052808781526020013373ffffffffffffffffffffffffffffffffffffffff16815260200186815260200185815260200162041eb043611e1a91906159be565b8152602001600073ffffffffffffffffffffffffffffffffffffffff1681526020018381525090806001815401808255809150506001900390600052602060002090600702016000909190919091506000820151816000015560208201518160010160006101000a81548173ffffffffffffffffffffffffffffffffffffffff021916908373ffffffffffffffffffffffffffffffffffffffff16021790555060408201518160020155606082015181600301556080820151816004015560a08201518160050160006101000a81548173ffffffffffffffffffffffffffffffffffffffff021916908373ffffffffffffffffffffffffffffffffffffffff16021790555060c0820151816006019080519060200190611f3b9291906148ce565b5050505050505050565b606060018054611f5490615b46565b80601f0160208091040260200160405190810160405280929190818152602001828054611f8090615b46565b8015611fcd5780601f10611fa257610100808354040283529160200191611fcd565b820191906000526020600020905b815481529060010190602001808311611fb057829003601f168201915b5050505050905090565b8060088054905011611fe857600080fd5b4360088281548110612023577f4e487b7100000000000000000000000000000000000000000000000000000000600052603260045260246000fd5b9060005260206000209060070201600401541161203f57600080fd5b60088181548110612079577f4e487b7100000000000000000000000000000000000000000000000000000000600052603260045260246000fd5b906000526020600020906007020160010160009054906101000a900473ffffffffffffffffffffffffffffffffffffffff1673ffffffffffffffffffffffffffffffffffffffff163373ffffffffffffffffffffffffffffffffffffffff1614156120e357600080fd5b6008818154811061211d577f4e487b7100000000000000000000000000000000000000000000000000000000600052603260045260246000fd5b906000526020600020906007020160050160009054906101000a900473ffffffffffffffffffffffffffffffffffffffff1673ffffffffffffffffffffffffffffffffffffffff163373ffffffffffffffffffffffffffffffffffffffff16141561218757600080fd5b6000600882815481106121c3577f4e487b7100000000000000000000000000000000000000000000000000000000600052603260045260246000fd5b90600052602060002090600702016006018054905011156123885760088181548110612218577f4e487b7100000000000000000000000000000000000000000000000000000000600052603260045260246000fd5b90600052602060002090600702016003015460088281548110612264577f4e487b7100000000000000000000000000000000000000000000000000000000600052603260045260246000fd5b90600052602060002090600702016006016001600884815481106122b1577f4e487b7100000000000000000000000000000000000000000000000000000000600052603260045260246000fd5b9060005260206000209060070201600601805490506122d09190615a14565b81548110612307577f4e487b7100000000000000000000000000000000000000000000000000000000600052603260045260246000fd5b906000526020600020015461231c91906159be565b600d600083815260200190815260200160002060003373ffffffffffffffffffffffffffffffffffffffff1673ffffffffffffffffffffffffffffffffffffffff168152602001908152602001600020543461237891906159be565b101561238357600080fd5b6123e1565b600881815481106123c2577f4e487b7100000000000000000000000000000000000000000000000000000000600052603260045260246000fd5b9060005260206000209060070201600201543410156123e057600080fd5b5b34600d600083815260200190815260200160002060003373ffffffffffffffffffffffffffffffffffffffff1673ffffffffffffffffffffffffffffffffffffffff168152602001908152602001600020600082825461244191906159be565b925050819055503360088281548110612483577f4e487b7100000000000000000000000000000000000000000000000000000000600052603260045260246000fd5b906000526020600020906007020160050160006101000a81548173ffffffffffffffffffffffffffffffffffffffff021916908373ffffffffffffffffffffffffffffffffffffffff1602179055506008818154811061250c577f4e487b7100000000000000000000000000000000000000000000000000000000600052603260045260246000fd5b9060005260206000209060070201600601600d600083815260200190815260200160002060003373ffffffffffffffffffffffffffffffffffffffff1673ffffffffffffffffffffffffffffffffffffffff16815260200190815260200160002054908060018154018082558091505060019003906000526020600020016000909190919091505550565b600081600780549050811080156125af575060008114155b6125b857600080fd5b600783815481106125f2577f4e487b7100000000000000000000000000000000000000000000000000000000600052603260045260246000fd5b906000526020600020906005020160010160009054906101000a900473ffffffffffffffffffffffffffffffffffffffff16915050919050565b60008160078054905081108015612644575060008114155b61264d57600080fd5b60078381548110612687577f4e487b7100000000000000000000000000000000000000000000000000000000600052603260045260246000fd5b906000526020600020906005020160020154915050919050565b6126a9613e9e565b73ffffffffffffffffffffffffffffffffffffffff168273ffffffffffffffffffffffffffffffffffffffff161415612717576040517f08c379a000000000000000000000000000000000000000000000000000000000815260040161270e90615710565b60405180910390fd5b8060056000612724613e9e565b73ffffffffffffffffffffffffffffffffffffffff1673ffffffffffffffffffffffffffffffffffffffff16815260200190815260200160002060008473ffffffffffffffffffffffffffffffffffffffff1673ffffffffffffffffffffffffffffffffffffffff16815260200190815260200160002060006101000a81548160ff0219169083151502179055508173ffffffffffffffffffffffffffffffffffffffff166127d1613e9e565b73ffffffffffffffffffffffffffffffffffffffff167f17307eab39ab6107e8899845ad3d59bd9653f200f220920489ca2b5937696c31836040516128169190615635565b60405180910390a35050565b6060600960008373ffffffffffffffffffffffffffffffffffffffff1673ffffffffffffffffffffffffffffffffffffffff1681526020019081526020016000208054806020026020016040519081016040528092919081815260200182805480156128ad57602002820191906000526020600020905b815481526020019060010190808311612899575b50505050509050919050565b80600780549050811080156128cf575060008114155b6128d857600080fd5b60078281548110612912577f4e487b7100000000000000000000000000000000000000000000000000000000600052603260045260246000fd5b90600052602060002090600502016003016007805490509080600181540180825580915050600190039060005260206000200160009091909190915055600960003373ffffffffffffffffffffffffffffffffffffffff1673ffffffffffffffffffffffffffffffffffffffff168152602001908152602001600020600780549050908060018154018082558091505060019003906000526020600020016000909190919091505560608060076040518060a0016040528088888080601f016020809104026020016040519081016040528093929190818152602001838380828437600081840152601f19601f8201169050808301925050505050505081526020013373ffffffffffffffffffffffffffffffffffffffff1681526020018681526020018481526020018381525090806001815401808255809150506001900390600052602060002090600502016000909190919091506000820151816000019080519060200190612a8592919061491b565b5060208201518160010160006101000a81548173ffffffffffffffffffffffffffffffffffffffff021916908373ffffffffffffffffffffffffffffffffffffffff160217905550604082015181600201556060820151816003019080519060200190612af39291906148ce565b506080820151816004019080519060200190612b109291906148ce565b505050505050505050565b600060088281548110612b57577f4e487b7100000000000000000000000000000000000000000000000000000000600052603260045260246000fd5b906000526020600020906007020160050160009054906101000a900473ffffffffffffffffffffffffffffffffffffffff169050919050565b600c6020528160005260406000208181548110612bac57600080fd5b90600052602060002001600091509150505481565b612bd2612bcc613e9e565b83613f5f565b612c11576040517f08c379a0000000000000000000000000000000000000000000000000000000008152600401612c0890615830565b60405180910390fd5b612c1d84848484614299565b50505050565b600060088281548110612c5f577f4e487b7100000000000000000000000000000000000000000000000000000000600052603260045260246000fd5b906000526020600020906007020160010160009054906101000a900473ffffffffffffffffffffffffffffffffffffffff169050919050565b60608160078054905081108015612cb0575060008114155b612cb957600080fd5b60078381548110612cf3577f4e487b7100000000000000000000000000000000000000000000000000000000600052603260045260246000fd5b90600052602060002090600502016000018054612d0f90615b46565b80601f0160208091040260200160405190810160405280929190818152602001828054612d3b90615b46565b8015612d885780601f10612d5d57610100808354040283529160200191612d88565b820191906000526020600020905b815481529060010190602001808311612d6b57829003601f168201915b5050505050915050919050565b806008805490508110612da757600080fd5b4360088281548110612de2577f4e487b7100000000000000000000000000000000000000000000000000000000600052603260045260246000fd5b90600052602060002090600702016004015410612dfe57600080fd5b60088281548110612e38577f4e487b7100000000000000000000000000000000000000000000000000000000600052603260045260246000fd5b906000526020600020906007020160010160009054906101000a900473ffffffffffffffffffffffffffffffffffffffff1673ffffffffffffffffffffffffffffffffffffffff163373ffffffffffffffffffffffffffffffffffffffff161480612f39575060088281548110612ed8577f4e487b7100000000000000000000000000000000000000000000000000000000600052603260045260246000fd5b906000526020600020906007020160050160009054906101000a900473ffffffffffffffffffffffffffffffffffffffff1673ffffffffffffffffffffffffffffffffffffffff163373ffffffffffffffffffffffffffffffffffffffff16145b612f4257600080fd5b600073ffffffffffffffffffffffffffffffffffffffff1660088381548110612f94577f4e487b7100000000000000000000000000000000000000000000000000000000600052603260045260246000fd5b906000526020600020906007020160050160009054906101000a900473ffffffffffffffffffffffffffffffffffffffff1673ffffffffffffffffffffffffffffffffffffffff1614613408576000600d6000848152602001908152602001600020600060088581548110613032577f4e487b7100000000000000000000000000000000000000000000000000000000600052603260045260246000fd5b906000526020600020906007020160050160009054906101000a900473ffffffffffffffffffffffffffffffffffffffff1673ffffffffffffffffffffffffffffffffffffffff1673ffffffffffffffffffffffffffffffffffffffff1681526020019081526020016000205414156130aa57600080fd5b6000600d60008481526020019081526020016000206000600885815481106130fb577f4e487b7100000000000000000000000000000000000000000000000000000000600052603260045260246000fd5b906000526020600020906007020160050160009054906101000a900473ffffffffffffffffffffffffffffffffffffffff1673ffffffffffffffffffffffffffffffffffffffff1673ffffffffffffffffffffffffffffffffffffffff1681526020019081526020016000205490506000600d60008581526020019081526020016000206000600886815481106131bb577f4e487b7100000000000000000000000000000000000000000000000000000000600052603260045260246000fd5b906000526020600020906007020160050160009054906101000a900473ffffffffffffffffffffffffffffffffffffffff1673ffffffffffffffffffffffffffffffffffffffff1673ffffffffffffffffffffffffffffffffffffffff1681526020019081526020016000208190555060088381548110613265577f4e487b7100000000000000000000000000000000000000000000000000000000600052603260045260246000fd5b906000526020600020906007020160010160009054906101000a900473ffffffffffffffffffffffffffffffffffffffff1673ffffffffffffffffffffffffffffffffffffffff166108fc829081150290604051600060405180830381858888f193505050501580156132dc573d6000803e3d6000fd5b503073ffffffffffffffffffffffffffffffffffffffff166342842e0e3060088681548110613334577f4e487b7100000000000000000000000000000000000000000000000000000000600052603260045260246000fd5b906000526020600020906007020160050160009054906101000a900473ffffffffffffffffffffffffffffffffffffffff16600887815481106133a0577f4e487b7100000000000000000000000000000000000000000000000000000000600052603260045260246000fd5b9060005260206000209060070201600001546040518463ffffffff1660e01b81526004016133d093929190615590565b600060405180830381600087803b1580156133ea57600080fd5b505af11580156133fe573d6000803e3d6000fd5b505050505061352e565b3073ffffffffffffffffffffffffffffffffffffffff166342842e0e306008858154811061345f577f4e487b7100000000000000000000000000000000000000000000000000000000600052603260045260246000fd5b906000526020600020906007020160010160009054906101000a900473ffffffffffffffffffffffffffffffffffffffff16600886815481106134cb577f4e487b7100000000000000000000000000000000000000000000000000000000600052603260045260246000fd5b9060005260206000209060070201600001546040518463ffffffff1660e01b81526004016134fb93929190615559565b600060405180830381600087803b15801561351557600080fd5b505af1158015613529573d6000803e3d6000fd5b505050505b5050565b600960003373ffffffffffffffffffffffffffffffffffffffff1673ffffffffffffffffffffffffffffffffffffffff168152602001908152602001600020600780549050908060018154018082558091505060019003906000526020600020016000909190919091505560608060076040518060a0016040528086868080601f016020809104026020016040519081016040528093929190818152602001838380828437600081840152601f19601f8201169050808301925050505050505081526020013373ffffffffffffffffffffffffffffffffffffffff16815260200160008152602001848152602001838152509080600181540180825580915050600190039060005260206000209060050201600090919091909150600082015181600001908051906020019061366992919061491b565b5060208201518160010160006101000a81548173ffffffffffffffffffffffffffffffffffffffff021916908373ffffffffffffffffffffffffffffffffffffffff1602179055506040820151816002015560608201518160030190805190602001906136d79291906148ce565b5060808201518160040190805190602001906136f49291906148ce565b50505050505050565b8060078054905081108015613713575060008114155b61371c57600080fd5b60078281548110613756577f4e487b7100000000000000000000000000000000000000000000000000000000600052603260045260246000fd5b906000526020600020906005020160010160009054906101000a900473ffffffffffffffffffffffffffffffffffffffff1673ffffffffffffffffffffffffffffffffffffffff163373ffffffffffffffffffffffffffffffffffffffff16146137bf57600080fd5b6000600783815481106137fb577f4e487b7100000000000000000000000000000000000000000000000000000000600052603260045260246000fd5b906000526020600020906005020160020154146138cc5760011515600e600060078581548110613854577f4e487b7100000000000000000000000000000000000000000000000000000000600052603260045260246000fd5b906000526020600020906005020160020154815260200190815260200160002060003373ffffffffffffffffffffffffffffffffffffffff1673ffffffffffffffffffffffffffffffffffffffff16815260200190815260200160002060009054906101000a900460ff161515146138cb57600080fd5b5b6138d8336006546142f5565b81600a60006006548152602001908152602001600020819055506007828154811061392c577f4e487b7100000000000000000000000000000000000000000000000000000000600052603260045260246000fd5b906000526020600020906005020160040160065490806001815401808255809150506001900390600052602060002001600090919091909150556006600081548092919061397990615b78565b91905055505050565b6060600882815481106139be577f4e487b7100000000000000000000000000000000000000000000000000000000600052603260045260246000fd5b9060005260206000209060070201600601805480602002602001604051908101604052809291908181526020018280548015613a1957602002820191906000526020600020905b815481526020019060010190808311613a05575b50505050509050919050565b6060613a3082613e32565b613a3957600080fd5b6007600a60008481526020019081526020016000205481548110613a86577f4e487b7100000000000000000000000000000000000000000000000000000000600052603260045260246000fd5b9060005260206000209060050201600001604051602001613aa7919061551c565b6040516020818303038152906040529050919050565b60004360088381548110613afa577f4e487b7100000000000000000000000000000000000000000000000000000000600052603260045260246000fd5b9060005260206000209060070201600401541115613b70574360088381548110613b4d577f4e487b7100000000000000000000000000000000000000000000000000000000600052603260045260246000fd5b906000526020600020906007020160040154613b699190615a14565b9050613b75565b600090505b919050565b806000600b60008381526020019081526020016000205411613b9b57600080fd5b600b600083815260200190815260200160002054341015613bbb57600080fd5b613bc4826118cd565b73ffffffffffffffffffffffffffffffffffffffff163373ffffffffffffffffffffffffffffffffffffffff161415613bfc57600080fd5b6000600b600084815260200190815260200160002081905550613c1e826118cd565b73ffffffffffffffffffffffffffffffffffffffff166108fc349081150290604051600060405180830381858888f19350505050158015613c63573d6000803e3d6000fd5b503073ffffffffffffffffffffffffffffffffffffffff166342842e0e613c89846118cd565b33856040518463ffffffff1660e01b8152600401613ca993929190615590565b600060405180830381600087803b158015613cc357600080fd5b505af1158015613cd7573d6000803e3d6000fd5b505050505050565b6000600560008473ffffffffffffffffffffffffffffffffffffffff1673ffffffffffffffffffffffffffffffffffffffff16815260200190815260200160002060008373ffffffffffffffffffffffffffffffffffffffff1673ffffffffffffffffffffffffffffffffffffffff16815260200190815260200160002060009054906101000a900460ff16905092915050565b600060088281548110613daf577f4e487b7100000000000000000000000000000000000000000000000000000000600052603260045260246000fd5b9060005260206000209060070201600201549050919050565b60007f01ffc9a7000000000000000000000000000000000000000000000000000000007bffffffffffffffffffffffffffffffffffffffffffffffffffffffff1916827bffffffffffffffffffffffffffffffffffffffffffffffffffffffff1916149050919050565b60008073ffffffffffffffffffffffffffffffffffffffff166002600084815260200190815260200160002060009054906101000a900473ffffffffffffffffffffffffffffffffffffffff1673ffffffffffffffffffffffffffffffffffffffff1614159050919050565b600033905090565b816004600083815260200190815260200160002060006101000a81548173ffffffffffffffffffffffffffffffffffffffff021916908373ffffffffffffffffffffffffffffffffffffffff160217905550808273ffffffffffffffffffffffffffffffffffffffff16613f19836118cd565b73ffffffffffffffffffffffffffffffffffffffff167f8c5be1e5ebec7d5bd14f71427d1e84f3dd0314c0f7b2291e5b200ac8c7c3b92560405160405180910390a45050565b6000613f6a82613e32565b613fa9576040517f08c379a0000000000000000000000000000000000000000000000000000000008152600401613fa090615730565b60405180910390fd5b6000613fb4836118cd565b90508073ffffffffffffffffffffffffffffffffffffffff168473ffffffffffffffffffffffffffffffffffffffff16148061402357508373ffffffffffffffffffffffffffffffffffffffff1661400b84610f43565b73ffffffffffffffffffffffffffffffffffffffff16145b8061403457506140338185613cdf565b5b91505092915050565b8273ffffffffffffffffffffffffffffffffffffffff1661405d826118cd565b73ffffffffffffffffffffffffffffffffffffffff16146140b3576040517f08c379a00000000000000000000000000000000000000000000000000000000081526004016140aa906157f0565b60405180910390fd5b600073ffffffffffffffffffffffffffffffffffffffff168273ffffffffffffffffffffffffffffffffffffffff161415614123576040517f08c379a000000000000000000000000000000000000000000000000000000000815260040161411a906156f0565b60405180910390fd5b61412e838383614313565b614139600082613ea6565b6001600360008573ffffffffffffffffffffffffffffffffffffffff1673ffffffffffffffffffffffffffffffffffffffff16815260200190815260200160002060008282546141899190615a14565b925050819055506001600360008473ffffffffffffffffffffffffffffffffffffffff1673ffffffffffffffffffffffffffffffffffffffff16815260200190815260200160002060008282546141e091906159be565b92505081905550816002600083815260200190815260200160002060006101000a81548173ffffffffffffffffffffffffffffffffffffffff021916908373ffffffffffffffffffffffffffffffffffffffff160217905550808273ffffffffffffffffffffffffffffffffffffffff168473ffffffffffffffffffffffffffffffffffffffff167fddf252ad1be2c89b69c2b068fc378daa952ba7f163c4a11628f55a4df523b3ef60405160405180910390a4505050565b6142a484848461403d565b6142b0848484846144fb565b6142ef576040517f08c379a00000000000000000000000000000000000000000000000000000000081526004016142e6906156b0565b60405180910390fd5b50505050565b61430f828260405180602001604052806000815250614692565b5050565b60001515600e6000600a600085815260200190815260200160002054815260200190815260200160002060008473ffffffffffffffffffffffffffffffffffffffff1673ffffffffffffffffffffffffffffffffffffffff16815260200190815260200160002060009054906101000a900460ff1615151461439457600080fd5b600073ffffffffffffffffffffffffffffffffffffffff168373ffffffffffffffffffffffffffffffffffffffff1614614445576000600e6000600a600085815260200190815260200160002054815260200190815260200160002060008573ffffffffffffffffffffffffffffffffffffffff1673ffffffffffffffffffffffffffffffffffffffff16815260200190815260200160002060006101000a81548160ff0219169083151502179055505b600073ffffffffffffffffffffffffffffffffffffffff168273ffffffffffffffffffffffffffffffffffffffff16146144f6576001600e6000600a600085815260200190815260200160002054815260200190815260200160002060008473ffffffffffffffffffffffffffffffffffffffff1673ffffffffffffffffffffffffffffffffffffffff16815260200190815260200160002060006101000a81548160ff0219169083151502179055505b505050565b600061451c8473ffffffffffffffffffffffffffffffffffffffff166146ed565b15614685578373ffffffffffffffffffffffffffffffffffffffff1663150b7a02614545613e9e565b8786866040518563ffffffff1660e01b815260040161456794939291906155c7565b602060405180830381600087803b15801561458157600080fd5b505af19250505080156145b257506040513d601f19601f820116820180604052508101906145af9190614ca9565b60015b614635573d80600081146145e2576040519150601f19603f3d011682016040523d82523d6000602084013e6145e7565b606091505b5060008151141561462d576040517f08c379a0000000000000000000000000000000000000000000000000000000008152600401614624906156b0565b60405180910390fd5b805181602001fd5b63150b7a0260e01b7bffffffffffffffffffffffffffffffffffffffffffffffffffffffff1916817bffffffffffffffffffffffffffffffffffffffffffffffffffffffff19161491505061468a565b600190505b949350505050565b61469c8383614700565b6146a960008484846144fb565b6146e8576040517f08c379a00000000000000000000000000000000000000000000000000000000081526004016146df906156b0565b60405180910390fd5b505050565b600080823b905060008111915050919050565b600073ffffffffffffffffffffffffffffffffffffffff168273ffffffffffffffffffffffffffffffffffffffff161415614770576040517f08c379a0000000000000000000000000000000000000000000000000000000008152600401614767906157b0565b60405180910390fd5b61477981613e32565b156147b9576040517f08c379a00000000000000000000000000000000000000000000000000000000081526004016147b0906156d0565b60405180910390fd5b6147c560008383614313565b6001600360008473ffffffffffffffffffffffffffffffffffffffff1673ffffffffffffffffffffffffffffffffffffffff168152602001908152602001600020600082825461481591906159be565b92505081905550816002600083815260200190815260200160002060006101000a81548173ffffffffffffffffffffffffffffffffffffffff021916908373ffffffffffffffffffffffffffffffffffffffff160217905550808273ffffffffffffffffffffffffffffffffffffffff16600073ffffffffffffffffffffffffffffffffffffffff167fddf252ad1be2c89b69c2b068fc378daa952ba7f163c4a11628f55a4df523b3ef60405160405180910390a45050565b82805482825590600052602060002090810192821561490a579160200282015b828111156149095782518255916020019190600101906148ee565b5b50905061491791906149a1565b5090565b82805461492790615b46565b90600052602060002090601f0160209004810192826149495760008555614990565b82601f1061496257805160ff1916838001178555614990565b82800160010185558215614990579182015b8281111561498f578251825591602001919060010190614974565b5b50905061499d91906149a1565b5090565b5b808211156149ba5760008160009055506001016149a2565b5090565b60006149d16149cc846158fd565b6158cc565b9050828152602081018484840111156149e957600080fd5b6149f4848285615b04565b509392505050565b600081359050614a0b81615c5f565b92915050565b600081359050614a2081615c76565b92915050565b600081359050614a3581615c8d565b92915050565b600081519050614a4a81615c8d565b92915050565b600082601f830112614a6157600080fd5b8135614a718482602086016149be565b91505092915050565b60008083601f840112614a8c57600080fd5b8235905067ffffffffffffffff811115614aa557600080fd5b602083019150836001820283011115614abd57600080fd5b9250929050565b600081359050614ad381615ca4565b92915050565b600060208284031215614aeb57600080fd5b6000614af9848285016149fc565b91505092915050565b60008060408385031215614b1557600080fd5b6000614b23858286016149fc565b9250506020614b34858286016149fc565b9150509250929050565b600080600060608486031215614b5357600080fd5b6000614b61868287016149fc565b9350506020614b72868287016149fc565b9250506040614b8386828701614ac4565b9150509250925092565b60008060008060808587031215614ba357600080fd5b6000614bb1878288016149fc565b9450506020614bc2878288016149fc565b9350506040614bd387828801614ac4565b925050606085013567ffffffffffffffff811115614bf057600080fd5b614bfc87828801614a50565b91505092959194509250565b60008060408385031215614c1b57600080fd5b6000614c29858286016149fc565b9250506020614c3a85828601614a11565b9150509250929050565b60008060408385031215614c5757600080fd5b6000614c65858286016149fc565b9250506020614c7685828601614ac4565b9150509250929050565b600060208284031215614c9257600080fd5b6000614ca084828501614a26565b91505092915050565b600060208284031215614cbb57600080fd5b6000614cc984828501614a3b565b91505092915050565b60008060208385031215614ce557600080fd5b600083013567ffffffffffffffff811115614cff57600080fd5b614d0b85828601614a7a565b92509250509250929050565b600080600060408486031215614d2c57600080fd5b600084013567ffffffffffffffff811115614d4657600080fd5b614d5286828701614a7a565b93509350506020614d6586828701614ac4565b9150509250925092565b600060208284031215614d8157600080fd5b6000614d8f84828501614ac4565b91505092915050565b60008060408385031215614dab57600080fd5b6000614db985828601614ac4565b9250506020614dca858286016149fc565b9150509250929050565b60008060408385031215614de757600080fd5b6000614df585828601614ac4565b9250506020614e0685828601614ac4565b9150509250929050565b600080600060608486031215614e2557600080fd5b6000614e3386828701614ac4565b9350506020614e4486828701614ac4565b9250506040614e5586828701614ac4565b9150509250925092565b6000614e6b83836154fe565b60208301905092915050565b614e8081615ace565b82525050565b614e8f81615a5a565b82525050565b614e9e81615a48565b82525050565b6000614eaf82615952565b614eb98185615980565b9350614ec48361592d565b8060005b83811015614ef5578151614edc8882614e5f565b9750614ee783615973565b925050600181019050614ec8565b5085935050505092915050565b614f0b81615a6c565b82525050565b6000614f1c8261595d565b614f268185615991565b9350614f36818560208601615b13565b614f3f81615c4e565b840191505092915050565b6000614f5582615968565b614f5f81856159a2565b9350614f6f818560208601615b13565b614f7881615c4e565b840191505092915050565b60008154614f9081615b46565b614f9a81866159b3565b94506001821660008114614fb55760018114614fc657614ff9565b60ff19831686528186019350614ff9565b614fcf8561593d565b60005b83811015614ff157815481890152600182019150602081019050614fd2565b838801955050505b50505092915050565b600061500f6032836159a2565b91507f4552433732313a207472616e7366657220746f206e6f6e20455243373231526560008301527f63656976657220696d706c656d656e74657200000000000000000000000000006020830152604082019050919050565b6000615075601c836159a2565b91507f4552433732313a20746f6b656e20616c7265616479206d696e746564000000006000830152602082019050919050565b60006150b56024836159a2565b91507f4552433732313a207472616e7366657220746f20746865207a65726f2061646460008301527f72657373000000000000000000000000000000000000000000000000000000006020830152604082019050919050565b600061511b6019836159a2565b91507f4552433732313a20617070726f766520746f2063616c6c6572000000000000006000830152602082019050919050565b600061515b602c836159a2565b91507f4552433732313a206f70657261746f7220717565727920666f72206e6f6e657860008301527f697374656e7420746f6b656e00000000000000000000000000000000000000006020830152604082019050919050565b60006151c16038836159a2565b91507f4552433732313a20617070726f76652063616c6c6572206973206e6f74206f7760008301527f6e6572206e6f7220617070726f76656420666f7220616c6c00000000000000006020830152604082019050919050565b60006152276015836159b3565b91507f68747470733a2f2f697066732e696f2f697066732f00000000000000000000006000830152601582019050919050565b6000615267602a836159a2565b91507f4552433732313a2062616c616e636520717565727920666f7220746865207a6560008301527f726f2061646472657373000000000000000000000000000000000000000000006020830152604082019050919050565b60006152cd6029836159a2565b91507f4552433732313a206f776e657220717565727920666f72206e6f6e657869737460008301527f656e7420746f6b656e00000000000000000000000000000000000000000000006020830152604082019050919050565b60006153336020836159a2565b91507f4552433732313a206d696e7420746f20746865207a65726f20616464726573736000830152602082019050919050565b6000615373602c836159a2565b91507f4552433732313a20617070726f76656420717565727920666f72206e6f6e657860008301527f697374656e7420746f6b656e00000000000000000000000000000000000000006020830152604082019050919050565b60006153d96029836159a2565b91507f4552433732313a207472616e73666572206f6620746f6b656e2074686174206960008301527f73206e6f74206f776e00000000000000000000000000000000000000000000006020830152604082019050919050565b600061543f6021836159a2565b91507f4552433732313a20617070726f76616c20746f2063757272656e74206f776e6560008301527f72000000000000000000000000000000000000000000000000000000000000006020830152604082019050919050565b60006154a56031836159a2565b91507f4552433732313a207472616e736665722063616c6c6572206973206e6f74206f60008301527f776e6572206e6f7220617070726f7665640000000000000000000000000000006020830152604082019050919050565b61550781615ac4565b82525050565b61551681615ac4565b82525050565b60006155278261521a565b91506155338284614f83565b915081905092915050565b60006020820190506155536000830184614e95565b92915050565b600060608201905061556e6000830186614e95565b61557b6020830185614e77565b615588604083018461550d565b949350505050565b60006060820190506155a56000830186614e95565b6155b26020830185614e95565b6155bf604083018461550d565b949350505050565b60006080820190506155dc6000830187614e95565b6155e96020830186614e95565b6155f6604083018561550d565b81810360608301526156088184614f11565b905095945050505050565b6000602082019050818103600083015261562d8184614ea4565b905092915050565b600060208201905061564a6000830184614f02565b92915050565b6000602082019050818103600083015261566a8184614f4a565b905092915050565b6000606082019050818103600083015261568c8186614f4a565b905061569b6020830185614e95565b6156a8604083018461550d565b949350505050565b600060208201905081810360008301526156c981615002565b9050919050565b600060208201905081810360008301526156e981615068565b9050919050565b60006020820190508181036000830152615709816150a8565b9050919050565b600060208201905081810360008301526157298161510e565b9050919050565b600060208201905081810360008301526157498161514e565b9050919050565b60006020820190508181036000830152615769816151b4565b9050919050565b600060208201905081810360008301526157898161525a565b9050919050565b600060208201905081810360008301526157a9816152c0565b9050919050565b600060208201905081810360008301526157c981615326565b9050919050565b600060208201905081810360008301526157e981615366565b9050919050565b60006020820190508181036000830152615809816153cc565b9050919050565b6000602082019050818103600083015261582981615432565b9050919050565b6000602082019050818103600083015261584981615498565b9050919050565b6000602082019050615865600083018461550d565b92915050565b600060c082019050615880600083018961550d565b61588d6020830188614e86565b61589a604083018761550d565b6158a7606083018661550d565b6158b4608083018561550d565b6158c160a0830184614e95565b979650505050505050565b6000604051905081810181811067ffffffffffffffff821117156158f3576158f2615c1f565b5b8060405250919050565b600067ffffffffffffffff82111561591857615917615c1f565b5b601f19601f8301169050602081019050919050565b6000819050602082019050919050565b60008190508160005260206000209050919050565b600081519050919050565b600081519050919050565b600081519050919050565b6000602082019050919050565b600082825260208201905092915050565b600082825260208201905092915050565b600082825260208201905092915050565b600081905092915050565b60006159c982615ac4565b91506159d483615ac4565b9250827fffffffffffffffffffffffffffffffffffffffffffffffffffffffffffffffff03821115615a0957615a08615bc1565b5b828201905092915050565b6000615a1f82615ac4565b9150615a2a83615ac4565b925082821015615a3d57615a3c615bc1565b5b828203905092915050565b6000615a5382615aa4565b9050919050565b6000615a6582615aa4565b9050919050565b60008115159050919050565b60007fffffffff0000000000000000000000000000000000000000000000000000000082169050919050565b600073ffffffffffffffffffffffffffffffffffffffff82169050919050565b6000819050919050565b6000615ad982615ae0565b9050919050565b6000615aeb82615af2565b9050919050565b6000615afd82615aa4565b9050919050565b82818337600083830152505050565b60005b83811015615b31578082015181840152602081019050615b16565b83811115615b40576000848401525b50505050565b60006002820490506001821680615b5e57607f821691505b60208210811415615b7257615b71615bf0565b5b50919050565b6000615b8382615ac4565b91507fffffffffffffffffffffffffffffffffffffffffffffffffffffffffffffffff821415615bb657615bb5615bc1565b5b600182019050919050565b7f4e487b7100000000000000000000000000000000000000000000000000000000600052601160045260246000fd5b7f4e487b7100000000000000000000000000000000000000000000000000000000600052602260045260246000fd5b7f4e487b7100000000000000000000000000000000000000000000000000000000600052604160045260246000fd5b6000601f19601f8301169050919050565b615c6881615a48565b8114615c7357600080fd5b50565b615c7f81615a6c565b8114615c8a57600080fd5b50565b615c9681615a78565b8114615ca157600080fd5b50565b615cad81615ac4565b8114615cb857600080fd5b5056fea2646970667358221220d31373190523109f2a28cd370c8aa64a44e4e2f99427ebdda4d746a7510c0ef964736f6c63430008000033",
  "immutableReferences": {},
  "source": "// SPDX-License-Identifier: MIT\npragma solidity 0.8.0;\n\nimport \"../node_modules/@openzeppelin/contracts/token/ERC721/ERC721.sol\";\n\n/// @title Crypto Posts\n/// @author Mario Mazzaferro\n/// @notice Manage Copyright Permissions through License Associated NFTs (LANs)\ncontract CryptoPosts is ERC721 {\n    /// @notice Tracks number of minted tokens\n    uint256 public counter;\n\n    /// @notice Stores Post's data\n    struct Post {\n        string cid;\n        address author;\n        uint256 root;\n        uint256[] derivatives;\n        uint256[] tokens;\n    }\n\n    /// @notice Stores Auction's data\n    struct Auction {\n        uint256 tokenId;\n        address payable seller;\n        uint256 minValue;\n        uint256 increment;\n        uint256 endBlock;\n        address topBidder;\n        uint256[] bids;\n    }\n\n    /// @notice List of all Posts ordered by Post Id ascending order\n    Post[] public posts;\n\n    /// @notice List of all Auctions ordered by Auction Id ascending order\n    Auction[] public auctions;\n\n    /// @notice Relates Writer's Address to its respective Post Collection\n    mapping(address => uint256[]) public collections;\n\n    /// @notice Relates token Id to its respective Post\n    mapping(uint256 => uint256) public tokenPost;\n\n    /// @notice Relates token Id to its respective price\n    mapping(uint256 => uint256) public price;\n\n    /// @notice Relates token Ids to their historic Auction Ids\n    mapping(uint256 => uint256[]) public tokenAuctions;\n\n    /// @notice Relates Auction Id to it's mapping of bidders to funds\n    mapping(uint256 => mapping(address => uint256)) public funds;\n\n    /// @notice Relates addresses that own LAN of PostIds\n    mapping(uint256 => mapping(address => bool)) public canMint;\n\n    /// @notice Checks if msg.sender owns tokenId\n    modifier OnlyTokenOwner(uint256 tokenId) {\n        require(ownerOf(tokenId) == msg.sender);\n        _;\n    }\n\n    /// @notice Checks if tokenId is for sale\n    modifier HasPrice(uint256 tokenId) {\n        require(price[tokenId] > 0);\n        _;\n    }\n\n    /// @notice Checks if postId is an existing Post\n    modifier validPostId(uint256 postId) {\n        require(postId < posts.length && postId != 0);\n        _;\n    }\n\n    /// @notice Checks if auctionId is from a valid and ended Auction\n    modifier EndedAuction(uint256 auctionId) {\n        require(auctionId < auctions.length);\n        require(auctions[auctionId].endBlock < block.number);\n        _;\n    }\n\n    /// @notice Sets initial values for the ERC-721 standard\n    constructor() ERC721(\"CryptoPosts\", \"CPT\") {\n        counter++;\n        uint256[] memory derivatives;\n        uint256[] memory tokens;\n        posts.push(Post(\"\", msg.sender, 0, derivatives, tokens));\n    }\n\n    /// @notice\n    /// @param from Address of the sender\n    /// @param to Address of the receiver\n    /// @param tokenId Id of the specific Token\n    function _beforeTokenTransfer(\n        address from,\n        address to,\n        uint256 tokenId\n    ) internal override {\n        require(canMint[tokenPost[tokenId]][to] == false);\n        if (from != address(0)) {\n            canMint[tokenPost[tokenId]][from] = false;\n        }\n        if (to != address(0)) {\n            canMint[tokenPost[tokenId]][to] = true;\n        }\n    }\n\n    /// @notice Returns MetadataURI for that specific tokenId\n    /// @param tokenId Id of the specific Token\n    function tokenURI(uint256 tokenId)\n        public\n        view\n        override\n        returns (string memory)\n    {\n        require(_exists(tokenId));\n        return\n            string(\n                abi.encodePacked(\n                    \"https://ipfs.io/ipfs/\",\n                    posts[tokenPost[tokenId]].cid\n                )\n            );\n    }\n\n    /// @notice Publishes Post\n    /// @param newCid IPFS CID of the Post that is being published\n    function publishPost(string calldata newCid) external {\n        collections[msg.sender].push(posts.length);\n        uint256[] memory derivatives;\n        uint256[] memory tokens;\n        posts.push(Post(newCid, msg.sender, 0, derivatives, tokens));\n    }\n\n    /// @notice Publishes Derivative Post\n    /// @param newCid IPFS CID of the Post that is being published\n    /// @param newCid IPFS CID of the Post that is being published\n    function publishPost(string calldata newCid, uint256 rootId)\n        external\n        validPostId(rootId)\n    {\n        posts[rootId].derivatives.push(posts.length);\n        collections[msg.sender].push(posts.length);\n        uint256[] memory derivatives;\n        uint256[] memory tokens;\n        posts.push(Post(newCid, msg.sender, rootId, derivatives, tokens));\n    }\n\n    /// @notice Mints token (License Associated NFT)\n    /// @param postId Id of target Post to be used for token minting\n    function mintToken(uint256 postId) external validPostId(postId) {\n        require(msg.sender == posts[postId].author);\n        if (posts[postId].root != 0) {\n            require(canMint[posts[postId].root][msg.sender] == true);\n        }\n        _safeMint(msg.sender, counter);\n        tokenPost[counter] = postId;\n        posts[postId].tokens.push(counter);\n        counter++;\n    }\n\n    /// @notice Returns length of the posts list\n    function postsLenght() external view returns (uint256) {\n        return posts.length;\n    }\n\n    /// @notice Returns IPFS CID of a specific postId\n    /// @param postId Id of the specific Post\n    function postCid(uint256 postId)\n        external\n        view\n        validPostId(postId)\n        returns (string memory)\n    {\n        return posts[postId].cid;\n    }\n\n    /// @notice Returns author of a specific postId\n    /// @param postId Id of the specific Post\n    function postAuthor(uint256 postId)\n        external\n        view\n        validPostId(postId)\n        returns (address)\n    {\n        return posts[postId].author;\n    }\n\n    /// @notice Returns root of a specific postId\n    /// @param postId Id of the specific Post\n    function postRoot(uint256 postId)\n        external\n        view\n        validPostId(postId)\n        returns (uint256)\n    {\n        return posts[postId].root;\n    }\n\n    /// @notice Returns number of derivatives for that specific postId\n    /// @param postId Id of the specific Post\n    function postDerivatives(uint256 postId)\n        external\n        view\n        validPostId(postId)\n        returns (uint256)\n    {\n        return posts[postId].derivatives.length;\n    }\n\n    /// @notice Returns list of derivatives for that specific postId\n    /// @param postId Id of the specific Post\n    function postDerivativeList(uint256 postId)\n        external\n        view\n        validPostId(postId)\n        returns (uint256[] memory)\n    {\n        return posts[postId].derivatives;\n    }\n\n    /// @notice Returns Id of a specific Derivative\n    /// @param postId Id of the specific Post\n    /// @param derivativeNumber Number of the specific Derivative\n    function derivativeId(uint256 postId, uint256 derivativeNumber)\n        external\n        view\n        validPostId(postId)\n        returns (uint256)\n    {\n        return posts[postId].derivatives[derivativeNumber];\n    }\n\n    /// @notice Returns number of tokens for that specific postId\n    /// @param postId Id of the specific Post\n    function postTokens(uint256 postId)\n        external\n        view\n        validPostId(postId)\n        returns (uint256)\n    {\n        return posts[postId].tokens.length;\n    }\n\n    /// @notice Returns list of tokens for that specific postId\n    /// @param postId Id of the specific Post\n    function postTokenList(uint256 postId)\n        external\n        view\n        validPostId(postId)\n        returns (uint256[] memory)\n    {\n        return posts[postId].tokens;\n    }\n\n    /// @notice Returns list of Posts written by a specific address\n    /// @param authorAddress Address of the specific author\n    function authorCollection(address authorAddress)\n        external\n        view\n        returns (uint256[] memory)\n    {\n        return collections[authorAddress];\n    }\n\n    /// @notice Puts token up for sale\n    /// @param tokenId Id of the token\n    /// @param askPrice Asking Price\n    function addSale(uint256 tokenId, uint256 askPrice)\n        external\n        OnlyTokenOwner(tokenId)\n    {\n        approve(address(this), tokenId);\n        price[tokenId] = askPrice;\n    }\n\n    /// @notice Removes token from sale\n    /// @param tokenId Id of the token\n    function removeSale(uint256 tokenId)\n        external\n        OnlyTokenOwner(tokenId)\n        HasPrice(tokenId)\n    {\n        approve(address(0), tokenId);\n        price[tokenId] = 0;\n    }\n\n    /// @notice Buys token\n    /// @param tokenId Id of the token\n    function buy(uint256 tokenId) external payable HasPrice(tokenId) {\n        require(msg.value >= price[tokenId]);\n        require(msg.sender != ownerOf(tokenId));\n        price[tokenId] = 0;\n        payable(ownerOf(tokenId)).transfer(msg.value);\n        IERC721(address(this)).safeTransferFrom(\n            ownerOf(tokenId),\n            msg.sender,\n            tokenId\n        );\n    }\n\n    /// @notice Returns token's price if its up for sale\n    /// @param tokenId Id of the token\n    function validPrice(uint256 tokenId)\n        external\n        view\n        HasPrice(tokenId)\n        returns (uint256)\n    {\n        require(getApproved(tokenId) == address(this));\n        return price[tokenId];\n    }\n\n    /// @notice Initiates auction\n    /// @param tokenId Id of the token being auctioned\n    /// @param minValue Minimal value accepted\n    /// @param increment Minimal incremental value\n    function startAuction(\n        uint256 tokenId,\n        uint256 minValue,\n        uint256 increment\n    ) external OnlyTokenOwner(tokenId) {\n        require(price[tokenId] == 0);\n        transferFrom(msg.sender, address(this), tokenId);\n        uint256[] memory bids;\n        tokenAuctions[tokenId].push(auctions.length);\n        auctions.push(\n            Auction(\n                tokenId,\n                payable(msg.sender),\n                minValue,\n                increment,\n                (block.number + 270000),\n                address(0),\n                bids\n            )\n        );\n    }\n\n    /// @notice Places a bid for a specific Auction\n    /// @param auctionId Id of the specific Auction\n    function placeBid(uint256 auctionId) external payable {\n        require(auctions.length > auctionId);\n        require(auctions[auctionId].endBlock > block.number);\n        require(msg.sender != auctions[auctionId].seller);\n        require(msg.sender != auctions[auctionId].topBidder);\n        if (auctions[auctionId].bids.length > 0) {\n            require(\n                msg.value + funds[auctionId][msg.sender] >=\n                    auctions[auctionId].bids[\n                        auctions[auctionId].bids.length - 1\n                    ] +\n                        auctions[auctionId].increment\n            );\n        } else {\n            require(msg.value >= auctions[auctionId].minValue);\n        }\n        funds[auctionId][msg.sender] += msg.value;\n        auctions[auctionId].topBidder = msg.sender;\n        auctions[auctionId].bids.push(funds[auctionId][msg.sender]);\n    }\n\n    /// @notice Withdraw Auction funds for those who are not the topBidder\n    /// @param auctionId Id of the specific Auction\n    function withdrawFunds(uint256 auctionId) external EndedAuction(auctionId) {\n        require(msg.sender != auctions[auctionId].topBidder);\n        require(funds[auctionId][msg.sender] > 0);\n        uint256 fund = funds[auctionId][msg.sender];\n        funds[auctionId][msg.sender] = 0;\n        payable(msg.sender).transfer(fund);\n    }\n\n    /// @notice Withdraw Auction assets for the topBidder and seller\n    /// @param auctionId Id of the specific Auction\n    function withdrawPrize(uint256 auctionId) external EndedAuction(auctionId) {\n        require(\n            msg.sender == auctions[auctionId].seller ||\n                msg.sender == auctions[auctionId].topBidder\n        );\n        if (auctions[auctionId].topBidder != address(0)) {\n            require(funds[auctionId][auctions[auctionId].topBidder] != 0);\n            uint256 fund = funds[auctionId][auctions[auctionId].topBidder];\n            funds[auctionId][auctions[auctionId].topBidder] = 0;\n            auctions[auctionId].seller.transfer(fund);\n            IERC721(address(this)).safeTransferFrom(\n                address(this),\n                auctions[auctionId].topBidder,\n                auctions[auctionId].tokenId\n            );\n        } else {\n            IERC721(address(this)).safeTransferFrom(\n                address(this),\n                auctions[auctionId].seller,\n                auctions[auctionId].tokenId\n            );\n        }\n    }\n\n    /// @notice Returns list of historic Auction Ids for that token Id\n    /// @param tokenId Id of the token being queried\n    function tokenAuctionCollection(uint256 tokenId)\n        external\n        view\n        returns (uint256[] memory)\n    {\n        return tokenAuctions[tokenId];\n    }\n\n    /// @notice Returns length of auctions\n    function auctionsLenght() external view returns (uint256) {\n        return auctions.length;\n    }\n\n    /// @notice Returns token Id of the auctionId\n    /// @param auctionId Id of the Auction being queried\n    function auctionTokenId(uint256 auctionId) external view returns (uint256) {\n        return auctions[auctionId].tokenId;\n    }\n\n    /// @notice Returns seller's address of the auctionId\n    /// @param auctionId Id of the Auction being queried\n    function auctionSeller(uint256 auctionId) external view returns (address) {\n        return auctions[auctionId].seller;\n    }\n\n    /// @notice Returns minValue of the auctionId\n    /// @param auctionId Id of the Auction being queried\n    function auctionMinValue(uint256 auctionId)\n        external\n        view\n        returns (uint256)\n    {\n        return auctions[auctionId].minValue;\n    }\n\n    /// @notice Returns increment of the auctionId\n    /// @param auctionId Id of the Auction being queried\n    function auctionIncrement(uint256 auctionId)\n        external\n        view\n        returns (uint256)\n    {\n        return auctions[auctionId].increment;\n    }\n\n    /// @notice Returns blocks left (~time left) of the auctionId\n    /// @param auctionId Id of the Auction being queried\n    function auctionTimeLeft(uint256 auctionId)\n        external\n        view\n        returns (uint256)\n    {\n        if (auctions[auctionId].endBlock > block.number) {\n            return (auctions[auctionId].endBlock - block.number);\n        } else {\n            return 0;\n        }\n    }\n\n    /// @notice Returns topBidder's address of the auctionId\n    /// @param auctionId Id of the Auction being queried\n    function auctionTopBidder(uint256 auctionId)\n        external\n        view\n        returns (address)\n    {\n        return auctions[auctionId].topBidder;\n    }\n\n    /// @notice Returns list of bids of the auctionId\n    /// @param auctionId Id of the Auction being queried\n    function auctionBids(uint256 auctionId)\n        external\n        view\n        returns (uint256[] memory)\n    {\n        return auctions[auctionId].bids;\n    }\n}\n",
  "sourcePath": "/home/mariomazzaferro/projects/cryptoPrompts/contracts/CryptoPosts.sol",
  "compiler": {
    "name": "solc",
    "version": "0.8.0+commit.c7dfd78e.Emscripten.clang"
  },
  "schemaVersion": "3.4.1",
  "updatedAt": "2022-04-15T22:28:34.882Z",
  "networkType": "ethereum",
  "devdoc": {
    "author": "Mario Mazzaferro",
    "kind": "dev",
    "methods": {
      "addSale(uint256,uint256)": {
        "params": {
          "askPrice": "Asking Price",
          "tokenId": "Id of the token"
        }
      },
      "approve(address,uint256)": {
        "details": "See {IERC721-approve}."
      },
      "auctionBids(uint256)": {
        "params": {
          "auctionId": "Id of the Auction being queried"
        }
      },
      "auctionIncrement(uint256)": {
        "params": {
          "auctionId": "Id of the Auction being queried"
        }
      },
      "auctionMinValue(uint256)": {
        "params": {
          "auctionId": "Id of the Auction being queried"
        }
      },
      "auctionSeller(uint256)": {
        "params": {
          "auctionId": "Id of the Auction being queried"
        }
      },
      "auctionTimeLeft(uint256)": {
        "params": {
          "auctionId": "Id of the Auction being queried"
        }
      },
      "auctionTokenId(uint256)": {
        "params": {
          "auctionId": "Id of the Auction being queried"
        }
      },
      "auctionTopBidder(uint256)": {
        "params": {
          "auctionId": "Id of the Auction being queried"
        }
      },
      "authorCollection(address)": {
        "params": {
          "authorAddress": "Address of the specific author"
        }
      },
      "balanceOf(address)": {
        "details": "See {IERC721-balanceOf}."
      },
      "buy(uint256)": {
        "params": {
          "tokenId": "Id of the token"
        }
      },
      "derivativeId(uint256,uint256)": {
        "params": {
          "derivativeNumber": "Number of the specific Derivative",
          "postId": "Id of the specific Post"
        }
      },
      "getApproved(uint256)": {
        "details": "See {IERC721-getApproved}."
      },
      "isApprovedForAll(address,address)": {
        "details": "See {IERC721-isApprovedForAll}."
      },
      "mintToken(uint256)": {
        "params": {
          "postId": "Id of target Post to be used for token minting"
        }
      },
      "name()": {
        "details": "See {IERC721Metadata-name}."
      },
      "ownerOf(uint256)": {
        "details": "See {IERC721-ownerOf}."
      },
      "placeBid(uint256)": {
        "params": {
          "auctionId": "Id of the specific Auction"
        }
      },
      "postAuthor(uint256)": {
        "params": {
          "postId": "Id of the specific Post"
        }
      },
      "postCid(uint256)": {
        "params": {
          "postId": "Id of the specific Post"
        }
      },
      "postDerivativeList(uint256)": {
        "params": {
          "postId": "Id of the specific Post"
        }
      },
      "postDerivatives(uint256)": {
        "params": {
          "postId": "Id of the specific Post"
        }
      },
      "postRoot(uint256)": {
        "params": {
          "postId": "Id of the specific Post"
        }
      },
      "postTokenList(uint256)": {
        "params": {
          "postId": "Id of the specific Post"
        }
      },
      "postTokens(uint256)": {
        "params": {
          "postId": "Id of the specific Post"
        }
      },
      "publishPost(string)": {
        "params": {
          "newCid": "IPFS CID of the Post that is being published"
        }
      },
      "publishPost(string,uint256)": {
        "params": {
          "newCid": "IPFS CID of the Post that is being published"
        }
      },
      "removeSale(uint256)": {
        "params": {
          "tokenId": "Id of the token"
        }
      },
      "safeTransferFrom(address,address,uint256)": {
        "details": "See {IERC721-safeTransferFrom}."
      },
      "safeTransferFrom(address,address,uint256,bytes)": {
        "details": "See {IERC721-safeTransferFrom}."
      },
      "setApprovalForAll(address,bool)": {
        "details": "See {IERC721-setApprovalForAll}."
      },
      "startAuction(uint256,uint256,uint256)": {
        "params": {
          "increment": "Minimal incremental value",
          "minValue": "Minimal value accepted",
          "tokenId": "Id of the token being auctioned"
        }
      },
      "supportsInterface(bytes4)": {
        "details": "See {IERC165-supportsInterface}."
      },
      "symbol()": {
        "details": "See {IERC721Metadata-symbol}."
      },
      "tokenAuctionCollection(uint256)": {
        "params": {
          "tokenId": "Id of the token being queried"
        }
      },
      "tokenURI(uint256)": {
        "params": {
          "tokenId": "Id of the specific Token"
        }
      },
      "transferFrom(address,address,uint256)": {
        "details": "See {IERC721-transferFrom}."
      },
      "validPrice(uint256)": {
        "params": {
          "tokenId": "Id of the token"
        }
      },
      "withdrawFunds(uint256)": {
        "params": {
          "auctionId": "Id of the specific Auction"
        }
      },
      "withdrawPrize(uint256)": {
        "params": {
          "auctionId": "Id of the specific Auction"
        }
      }
    },
    "title": "Crypto Posts",
    "version": 1
  },
  "userdoc": {
    "kind": "user",
    "methods": {
      "addSale(uint256,uint256)": {
        "notice": "Puts token up for sale"
      },
      "auctionBids(uint256)": {
        "notice": "Returns list of bids of the auctionId"
      },
      "auctionIncrement(uint256)": {
        "notice": "Returns increment of the auctionId"
      },
      "auctionMinValue(uint256)": {
        "notice": "Returns minValue of the auctionId"
      },
      "auctionSeller(uint256)": {
        "notice": "Returns seller's address of the auctionId"
      },
      "auctionTimeLeft(uint256)": {
        "notice": "Returns blocks left (~time left) of the auctionId"
      },
      "auctionTokenId(uint256)": {
        "notice": "Returns token Id of the auctionId"
      },
      "auctionTopBidder(uint256)": {
        "notice": "Returns topBidder's address of the auctionId"
      },
      "auctions(uint256)": {
        "notice": "List of all Auctions ordered by Auction Id ascending order"
      },
      "auctionsLenght()": {
        "notice": "Returns length of auctions"
      },
      "authorCollection(address)": {
        "notice": "Returns list of Posts written by a specific address"
      },
      "buy(uint256)": {
        "notice": "Buys token"
      },
      "canMint(uint256,address)": {
        "notice": "Relates addresses that own LAN of PostIds"
      },
      "collections(address,uint256)": {
        "notice": "Relates Writer's Address to its respective Post Collection"
      },
      "constructor": {
        "notice": "Sets initial values for the ERC-721 standard"
      },
      "counter()": {
        "notice": "Tracks number of minted tokens"
      },
      "derivativeId(uint256,uint256)": {
        "notice": "Returns Id of a specific Derivative"
      },
      "funds(uint256,address)": {
        "notice": "Relates Auction Id to it's mapping of bidders to funds"
      },
      "mintToken(uint256)": {
        "notice": "Mints token (License Associated NFT)"
      },
      "placeBid(uint256)": {
        "notice": "Places a bid for a specific Auction"
      },
      "postAuthor(uint256)": {
        "notice": "Returns author of a specific postId"
      },
      "postCid(uint256)": {
        "notice": "Returns IPFS CID of a specific postId"
      },
      "postDerivativeList(uint256)": {
        "notice": "Returns list of derivatives for that specific postId"
      },
      "postDerivatives(uint256)": {
        "notice": "Returns number of derivatives for that specific postId"
      },
      "postRoot(uint256)": {
        "notice": "Returns root of a specific postId"
      },
      "postTokenList(uint256)": {
        "notice": "Returns list of tokens for that specific postId"
      },
      "postTokens(uint256)": {
        "notice": "Returns number of tokens for that specific postId"
      },
      "posts(uint256)": {
        "notice": "List of all Posts ordered by Post Id ascending order"
      },
      "postsLenght()": {
        "notice": "Returns length of the posts list"
      },
      "price(uint256)": {
        "notice": "Relates token Id to its respective price"
      },
      "publishPost(string)": {
        "notice": "Publishes Post"
      },
      "publishPost(string,uint256)": {
        "notice": "Publishes Derivative Post"
      },
      "removeSale(uint256)": {
        "notice": "Removes token from sale"
      },
      "startAuction(uint256,uint256,uint256)": {
        "notice": "Initiates auction"
      },
      "tokenAuctionCollection(uint256)": {
        "notice": "Returns list of historic Auction Ids for that token Id"
      },
      "tokenAuctions(uint256,uint256)": {
        "notice": "Relates token Ids to their historic Auction Ids"
      },
      "tokenPost(uint256)": {
        "notice": "Relates token Id to its respective Post"
      },
      "tokenURI(uint256)": {
        "notice": "Returns MetadataURI for that specific tokenId"
      },
      "validPrice(uint256)": {
        "notice": "Returns token's price if its up for sale"
      },
      "withdrawFunds(uint256)": {
        "notice": "Withdraw Auction funds for those who are not the topBidder"
      },
      "withdrawPrize(uint256)": {
        "notice": "Withdraw Auction assets for the topBidder and seller"
      }
    },
    "notice": "Manage Copyright Permissions through License Associated NFTs (LANs)",
    "version": 1
  }
}