{
  "contractName": "CryptoPosts",
  "abi": [
    {
      "inputs": [],
      "stateMutability": "nonpayable",
      "type": "constructor"
    },
    {
      "anonymous": false,
      "inputs": [
        {
          "indexed": true,
          "internalType": "address",
          "name": "owner",
          "type": "address"
        },
        {
          "indexed": true,
          "internalType": "address",
          "name": "approved",
          "type": "address"
        },
        {
          "indexed": true,
          "internalType": "uint256",
          "name": "tokenId",
          "type": "uint256"
        }
      ],
      "name": "Approval",
      "type": "event"
    },
    {
      "anonymous": false,
      "inputs": [
        {
          "indexed": true,
          "internalType": "address",
          "name": "owner",
          "type": "address"
        },
        {
          "indexed": true,
          "internalType": "address",
          "name": "operator",
          "type": "address"
        },
        {
          "indexed": false,
          "internalType": "bool",
          "name": "approved",
          "type": "bool"
        }
      ],
      "name": "ApprovalForAll",
      "type": "event"
    },
    {
      "anonymous": false,
      "inputs": [
        {
          "indexed": true,
          "internalType": "address",
          "name": "from",
          "type": "address"
        },
        {
          "indexed": true,
          "internalType": "address",
          "name": "to",
          "type": "address"
        },
        {
          "indexed": true,
          "internalType": "uint256",
          "name": "tokenId",
          "type": "uint256"
        }
      ],
      "name": "Transfer",
      "type": "event"
    },
    {
      "inputs": [
        {
          "internalType": "address",
          "name": "to",
          "type": "address"
        },
        {
          "internalType": "uint256",
          "name": "tokenId",
          "type": "uint256"
        }
      ],
      "name": "approve",
      "outputs": [],
      "stateMutability": "nonpayable",
      "type": "function"
    },
    {
      "inputs": [
        {
          "internalType": "uint256",
          "name": "",
          "type": "uint256"
        }
      ],
      "name": "auctions",
      "outputs": [
        {
          "internalType": "uint256",
          "name": "tokenId",
          "type": "uint256"
        },
        {
          "internalType": "address payable",
          "name": "seller",
          "type": "address"
        },
        {
          "internalType": "uint256",
          "name": "minValue",
          "type": "uint256"
        },
        {
          "internalType": "uint256",
          "name": "increment",
          "type": "uint256"
        },
        {
          "internalType": "uint256",
          "name": "endBlock",
          "type": "uint256"
        },
        {
          "internalType": "address",
          "name": "topBidder",
          "type": "address"
        }
      ],
      "stateMutability": "view",
      "type": "function",
      "constant": true
    },
    {
      "inputs": [
        {
          "internalType": "address",
          "name": "owner",
          "type": "address"
        }
      ],
      "name": "balanceOf",
      "outputs": [
        {
          "internalType": "uint256",
          "name": "",
          "type": "uint256"
        }
      ],
      "stateMutability": "view",
      "type": "function",
      "constant": true
    },
    {
      "inputs": [
        {
          "internalType": "address",
          "name": "",
          "type": "address"
        },
        {
          "internalType": "uint256",
          "name": "",
          "type": "uint256"
        }
      ],
      "name": "collections",
      "outputs": [
        {
          "internalType": "uint256",
          "name": "",
          "type": "uint256"
        }
      ],
      "stateMutability": "view",
      "type": "function",
      "constant": true
    },
    {
      "inputs": [],
      "name": "counter",
      "outputs": [
        {
          "internalType": "uint256",
          "name": "",
          "type": "uint256"
        }
      ],
      "stateMutability": "view",
      "type": "function",
      "constant": true
    },
    {
      "inputs": [
        {
          "internalType": "uint256",
          "name": "",
          "type": "uint256"
        },
        {
          "internalType": "address",
          "name": "",
          "type": "address"
        }
      ],
      "name": "funds",
      "outputs": [
        {
          "internalType": "uint256",
          "name": "",
          "type": "uint256"
        }
      ],
      "stateMutability": "view",
      "type": "function",
      "constant": true
    },
    {
      "inputs": [
        {
          "internalType": "uint256",
          "name": "tokenId",
          "type": "uint256"
        }
      ],
      "name": "getApproved",
      "outputs": [
        {
          "internalType": "address",
          "name": "",
          "type": "address"
        }
      ],
      "stateMutability": "view",
      "type": "function",
      "constant": true
    },
    {
      "inputs": [
        {
          "internalType": "address",
          "name": "owner",
          "type": "address"
        },
        {
          "internalType": "address",
          "name": "operator",
          "type": "address"
        }
      ],
      "name": "isApprovedForAll",
      "outputs": [
        {
          "internalType": "bool",
          "name": "",
          "type": "bool"
        }
      ],
      "stateMutability": "view",
      "type": "function",
      "constant": true
    },
    {
      "inputs": [],
      "name": "name",
      "outputs": [
        {
          "internalType": "string",
          "name": "",
          "type": "string"
        }
      ],
      "stateMutability": "view",
      "type": "function",
      "constant": true
    },
    {
      "inputs": [
        {
          "internalType": "uint256",
          "name": "tokenId",
          "type": "uint256"
        }
      ],
      "name": "ownerOf",
      "outputs": [
        {
          "internalType": "address",
          "name": "",
          "type": "address"
        }
      ],
      "stateMutability": "view",
      "type": "function",
      "constant": true
    },
    {
      "inputs": [
        {
          "internalType": "uint256",
          "name": "",
          "type": "uint256"
        }
      ],
      "name": "posts",
      "outputs": [
        {
          "internalType": "string",
          "name": "cid",
          "type": "string"
        },
        {
          "internalType": "address",
          "name": "author",
          "type": "address"
        }
      ],
      "stateMutability": "view",
      "type": "function",
      "constant": true
    },
    {
      "inputs": [
        {
          "internalType": "uint256",
          "name": "",
          "type": "uint256"
        }
      ],
      "name": "price",
      "outputs": [
        {
          "internalType": "uint256",
          "name": "",
          "type": "uint256"
        }
      ],
      "stateMutability": "view",
      "type": "function",
      "constant": true
    },
    {
      "inputs": [
        {
          "internalType": "address",
          "name": "from",
          "type": "address"
        },
        {
          "internalType": "address",
          "name": "to",
          "type": "address"
        },
        {
          "internalType": "uint256",
          "name": "tokenId",
          "type": "uint256"
        }
      ],
      "name": "safeTransferFrom",
      "outputs": [],
      "stateMutability": "nonpayable",
      "type": "function"
    },
    {
      "inputs": [
        {
          "internalType": "address",
          "name": "from",
          "type": "address"
        },
        {
          "internalType": "address",
          "name": "to",
          "type": "address"
        },
        {
          "internalType": "uint256",
          "name": "tokenId",
          "type": "uint256"
        },
        {
          "internalType": "bytes",
          "name": "_data",
          "type": "bytes"
        }
      ],
      "name": "safeTransferFrom",
      "outputs": [],
      "stateMutability": "nonpayable",
      "type": "function"
    },
    {
      "inputs": [
        {
          "internalType": "address",
          "name": "operator",
          "type": "address"
        },
        {
          "internalType": "bool",
          "name": "approved",
          "type": "bool"
        }
      ],
      "name": "setApprovalForAll",
      "outputs": [],
      "stateMutability": "nonpayable",
      "type": "function"
    },
    {
      "inputs": [
        {
          "internalType": "bytes4",
          "name": "interfaceId",
          "type": "bytes4"
        }
      ],
      "name": "supportsInterface",
      "outputs": [
        {
          "internalType": "bool",
          "name": "",
          "type": "bool"
        }
      ],
      "stateMutability": "view",
      "type": "function",
      "constant": true
    },
    {
      "inputs": [],
      "name": "symbol",
      "outputs": [
        {
          "internalType": "string",
          "name": "",
          "type": "string"
        }
      ],
      "stateMutability": "view",
      "type": "function",
      "constant": true
    },
    {
      "inputs": [
        {
          "internalType": "uint256",
          "name": "",
          "type": "uint256"
        },
        {
          "internalType": "uint256",
          "name": "",
          "type": "uint256"
        }
      ],
      "name": "tokenAuctions",
      "outputs": [
        {
          "internalType": "uint256",
          "name": "",
          "type": "uint256"
        }
      ],
      "stateMutability": "view",
      "type": "function",
      "constant": true
    },
    {
      "inputs": [
        {
          "internalType": "uint256",
          "name": "",
          "type": "uint256"
        }
      ],
      "name": "tokenPost",
      "outputs": [
        {
          "internalType": "uint256",
          "name": "",
          "type": "uint256"
        }
      ],
      "stateMutability": "view",
      "type": "function",
      "constant": true
    },
    {
      "inputs": [
        {
          "internalType": "address",
          "name": "from",
          "type": "address"
        },
        {
          "internalType": "address",
          "name": "to",
          "type": "address"
        },
        {
          "internalType": "uint256",
          "name": "tokenId",
          "type": "uint256"
        }
      ],
      "name": "transferFrom",
      "outputs": [],
      "stateMutability": "nonpayable",
      "type": "function"
    },
    {
      "inputs": [
        {
          "internalType": "uint256",
          "name": "tokenId",
          "type": "uint256"
        }
      ],
      "name": "tokenURI",
      "outputs": [
        {
          "internalType": "string",
          "name": "",
          "type": "string"
        }
      ],
      "stateMutability": "view",
      "type": "function",
      "constant": true
    },
    {
      "inputs": [
        {
          "internalType": "string",
          "name": "newCid",
          "type": "string"
        }
      ],
      "name": "publishPost",
      "outputs": [],
      "stateMutability": "nonpayable",
      "type": "function"
    },
    {
      "inputs": [
        {
          "internalType": "string",
          "name": "newCid",
          "type": "string"
        },
        {
          "internalType": "uint256",
          "name": "rootId",
          "type": "uint256"
        }
      ],
      "name": "publishPost",
      "outputs": [],
      "stateMutability": "nonpayable",
      "type": "function"
    },
    {
      "inputs": [
        {
          "internalType": "uint256",
          "name": "postId",
          "type": "uint256"
        }
      ],
      "name": "mintToken",
      "outputs": [],
      "stateMutability": "nonpayable",
      "type": "function"
    },
    {
      "inputs": [],
      "name": "postsLenght",
      "outputs": [
        {
          "internalType": "uint256",
          "name": "",
          "type": "uint256"
        }
      ],
      "stateMutability": "view",
      "type": "function",
      "constant": true
    },
    {
      "inputs": [
        {
          "internalType": "uint256",
          "name": "postId",
          "type": "uint256"
        }
      ],
      "name": "postCid",
      "outputs": [
        {
          "internalType": "string",
          "name": "",
          "type": "string"
        }
      ],
      "stateMutability": "view",
      "type": "function",
      "constant": true
    },
    {
      "inputs": [
        {
          "internalType": "uint256",
          "name": "postId",
          "type": "uint256"
        }
      ],
      "name": "postAuthor",
      "outputs": [
        {
          "internalType": "address",
          "name": "",
          "type": "address"
        }
      ],
      "stateMutability": "view",
      "type": "function",
      "constant": true
    },
    {
      "inputs": [
        {
          "internalType": "uint256",
          "name": "postId",
          "type": "uint256"
        }
      ],
      "name": "postComments",
      "outputs": [
        {
          "internalType": "uint256",
          "name": "",
          "type": "uint256"
        }
      ],
      "stateMutability": "view",
      "type": "function",
      "constant": true
    },
    {
      "inputs": [
        {
          "internalType": "uint256",
          "name": "postId",
          "type": "uint256"
        }
      ],
      "name": "postCommentList",
      "outputs": [
        {
          "internalType": "uint256[]",
          "name": "",
          "type": "uint256[]"
        }
      ],
      "stateMutability": "view",
      "type": "function",
      "constant": true
    },
    {
      "inputs": [
        {
          "internalType": "uint256",
          "name": "postId",
          "type": "uint256"
        },
        {
          "internalType": "uint256",
          "name": "commentNumber",
          "type": "uint256"
        }
      ],
      "name": "commentId",
      "outputs": [
        {
          "internalType": "uint256",
          "name": "",
          "type": "uint256"
        }
      ],
      "stateMutability": "view",
      "type": "function",
      "constant": true
    },
    {
      "inputs": [
        {
          "internalType": "uint256",
          "name": "postId",
          "type": "uint256"
        }
      ],
      "name": "postTokens",
      "outputs": [
        {
          "internalType": "uint256",
          "name": "",
          "type": "uint256"
        }
      ],
      "stateMutability": "view",
      "type": "function",
      "constant": true
    },
    {
      "inputs": [
        {
          "internalType": "uint256",
          "name": "postId",
          "type": "uint256"
        }
      ],
      "name": "postTokenList",
      "outputs": [
        {
          "internalType": "uint256[]",
          "name": "",
          "type": "uint256[]"
        }
      ],
      "stateMutability": "view",
      "type": "function",
      "constant": true
    },
    {
      "inputs": [
        {
          "internalType": "address",
          "name": "authorAddress",
          "type": "address"
        }
      ],
      "name": "authorCollection",
      "outputs": [
        {
          "internalType": "uint256[]",
          "name": "",
          "type": "uint256[]"
        }
      ],
      "stateMutability": "view",
      "type": "function",
      "constant": true
    },
    {
      "inputs": [
        {
          "internalType": "uint256",
          "name": "tokenId",
          "type": "uint256"
        },
        {
          "internalType": "uint256",
          "name": "askPrice",
          "type": "uint256"
        }
      ],
      "name": "addSale",
      "outputs": [],
      "stateMutability": "nonpayable",
      "type": "function"
    },
    {
      "inputs": [
        {
          "internalType": "uint256",
          "name": "tokenId",
          "type": "uint256"
        }
      ],
      "name": "removeSale",
      "outputs": [],
      "stateMutability": "nonpayable",
      "type": "function"
    },
    {
      "inputs": [
        {
          "internalType": "uint256",
          "name": "tokenId",
          "type": "uint256"
        }
      ],
      "name": "buy",
      "outputs": [],
      "stateMutability": "payable",
      "type": "function",
      "payable": true
    },
    {
      "inputs": [
        {
          "internalType": "uint256",
          "name": "tokenId",
          "type": "uint256"
        }
      ],
      "name": "validPrice",
      "outputs": [
        {
          "internalType": "uint256",
          "name": "",
          "type": "uint256"
        }
      ],
      "stateMutability": "view",
      "type": "function",
      "constant": true
    },
    {
      "inputs": [
        {
          "internalType": "uint256",
          "name": "tokenId",
          "type": "uint256"
        },
        {
          "internalType": "uint256",
          "name": "minValue",
          "type": "uint256"
        },
        {
          "internalType": "uint256",
          "name": "increment",
          "type": "uint256"
        }
      ],
      "name": "startAuction",
      "outputs": [],
      "stateMutability": "nonpayable",
      "type": "function"
    },
    {
      "inputs": [
        {
          "internalType": "uint256",
          "name": "auctionId",
          "type": "uint256"
        }
      ],
      "name": "placeBid",
      "outputs": [],
      "stateMutability": "payable",
      "type": "function",
      "payable": true
    },
    {
      "inputs": [
        {
          "internalType": "uint256",
          "name": "auctionId",
          "type": "uint256"
        }
      ],
      "name": "withdrawFunds",
      "outputs": [],
      "stateMutability": "nonpayable",
      "type": "function"
    },
    {
      "inputs": [
        {
          "internalType": "uint256",
          "name": "auctionId",
          "type": "uint256"
        }
      ],
      "name": "withdrawPrize",
      "outputs": [],
      "stateMutability": "nonpayable",
      "type": "function"
    },
    {
      "inputs": [
        {
          "internalType": "uint256",
          "name": "tokenId",
          "type": "uint256"
        }
      ],
      "name": "tokenAuctionCollection",
      "outputs": [
        {
          "internalType": "uint256[]",
          "name": "",
          "type": "uint256[]"
        }
      ],
      "stateMutability": "view",
      "type": "function",
      "constant": true
    },
    {
      "inputs": [],
      "name": "auctionsLenght",
      "outputs": [
        {
          "internalType": "uint256",
          "name": "",
          "type": "uint256"
        }
      ],
      "stateMutability": "view",
      "type": "function",
      "constant": true
    },
    {
      "inputs": [
        {
          "internalType": "uint256",
          "name": "auctionId",
          "type": "uint256"
        }
      ],
      "name": "auctionTokenId",
      "outputs": [
        {
          "internalType": "uint256",
          "name": "",
          "type": "uint256"
        }
      ],
      "stateMutability": "view",
      "type": "function",
      "constant": true
    },
    {
      "inputs": [
        {
          "internalType": "uint256",
          "name": "auctionId",
          "type": "uint256"
        }
      ],
      "name": "auctionSeller",
      "outputs": [
        {
          "internalType": "address",
          "name": "",
          "type": "address"
        }
      ],
      "stateMutability": "view",
      "type": "function",
      "constant": true
    },
    {
      "inputs": [
        {
          "internalType": "uint256",
          "name": "auctionId",
          "type": "uint256"
        }
      ],
      "name": "auctionMinValue",
      "outputs": [
        {
          "internalType": "uint256",
          "name": "",
          "type": "uint256"
        }
      ],
      "stateMutability": "view",
      "type": "function",
      "constant": true
    },
    {
      "inputs": [
        {
          "internalType": "uint256",
          "name": "auctionId",
          "type": "uint256"
        }
      ],
      "name": "auctionIncrement",
      "outputs": [
        {
          "internalType": "uint256",
          "name": "",
          "type": "uint256"
        }
      ],
      "stateMutability": "view",
      "type": "function",
      "constant": true
    },
    {
      "inputs": [
        {
          "internalType": "uint256",
          "name": "auctionId",
          "type": "uint256"
        }
      ],
      "name": "auctionTimeLeft",
      "outputs": [
        {
          "internalType": "uint256",
          "name": "",
          "type": "uint256"
        }
      ],
      "stateMutability": "view",
      "type": "function",
      "constant": true
    },
    {
      "inputs": [
        {
          "internalType": "uint256",
          "name": "auctionId",
          "type": "uint256"
        }
      ],
      "name": "auctionTopBidder",
      "outputs": [
        {
          "internalType": "address",
          "name": "",
          "type": "address"
        }
      ],
      "stateMutability": "view",
      "type": "function",
      "constant": true
    },
    {
      "inputs": [
        {
          "internalType": "uint256",
          "name": "auctionId",
          "type": "uint256"
        }
      ],
      "name": "auctionBids",
      "outputs": [
        {
          "internalType": "uint256[]",
          "name": "",
          "type": "uint256[]"
        }
      ],
      "stateMutability": "view",
      "type": "function",
      "constant": true
    }
  ],
  "bytecode": "0x60806040523480156200001157600080fd5b506040518060400160405280600b81526020017f43727970746f506f7374730000000000000000000000000000000000000000008152506040518060400160405280600381526020017f4350540000000000000000000000000000000000000000000000000000000000815250816000908051906020019062000096929190620000b8565b508060019080519060200190620000af929190620000b8565b505050620001cd565b828054620000c69062000168565b90600052602060002090601f016020900481019282620000ea576000855562000136565b82601f106200010557805160ff191683800117855562000136565b8280016001018555821562000136579182015b828111156200013557825182559160200191906001019062000118565b5b50905062000145919062000149565b5090565b5b80821115620001645760008160009055506001016200014a565b5090565b600060028204905060018216806200018157607f821691505b602082108114156200019857620001976200019e565b5b50919050565b7f4e487b7100000000000000000000000000000000000000000000000000000000600052602260045260246000fd5b615d2c80620001dd6000396000f3fe6080604052600436106102c95760003560e01c806370a0823111610175578063b829d85d116100dc578063c634d03211610095578063d798b8da1161006f578063d798b8da14610c4b578063d96a094a14610c88578063e985e9c514610ca4578063fafc4f8a14610ce1576102c9565b8063c634d03214610ba8578063c84d966514610bd1578063c87b56dd14610c0e576102c9565b8063b829d85d14610a76578063b88d4fde14610ab3578063ba39c04414610adc578063bfd7fd3e14610b19578063c20eec7b14610b56578063c571946314610b7f576102c9565b80639a5f277f1161012e5780639a5f277f14610930578063a22cb4651461096d578063a2a49d7a14610996578063a530c775146109d3578063b51b3fe914610a10578063b7c1d87f14610a39576102c9565b806370a082311461082f5780637d025a621461086c57806384b8e3dd1461089557806391e078bb146108c057806395d89b41146108e95780639979ef4514610914576102c9565b80632d0dc41211610234578063571a26a0116101ed57806361bc221a116101c757806361bc221a1461074d5780636352211e146107785780636c826776146107b55780636f316ac2146107f2576102c9565b8063571a26a0146106915780635896b178146106d35780635b0681d214610710576102c9565b80632d0dc4121461055d5780632f8df4a01461059a57806342842e0e146105d757806344e797e91461060057806349a764cd1461062957806350ee320d14610666576102c9565b8063155dd5ee11610286578063155dd5ee146104175780631833ca59146104405780631c12b54f1461047d57806323b872dd146104ba57806326a49e37146104e3578063277517ae14610520576102c9565b806301ffc9a7146102ce57806306fdde031461030b578063081812fc14610336578063095ea7b3146103735780630b1e7f831461039c57806311341d51146103da575b600080fd5b3480156102da57600080fd5b506102f560048036038101906102f09190614a03565b610d1e565b604051610302919061559e565b60405180910390f35b34801561031757600080fd5b50610320610e00565b60405161032d91906155b9565b60405180910390f35b34801561034257600080fd5b5061035d60048036038101906103589190614af2565b610e92565b60405161036a91906154a7565b60405180910390f35b34801561037f57600080fd5b5061039a600480360381019061039591906149c7565b610f17565b005b3480156103a857600080fd5b506103c360048036038101906103be9190614af2565b61102f565b6040516103d19291906155db565b60405180910390f35b3480156103e657600080fd5b5061040160048036038101906103fc9190614af2565b61110b565b60405161040e919061588b565b60405180910390f35b34801561042357600080fd5b5061043e60048036038101906104399190614af2565b6111ac565b005b34801561044c57600080fd5b5061046760048036038101906104629190614af2565b61140d565b604051610474919061557c565b60405180910390f35b34801561048957600080fd5b506104a4600480360381019061049f9190614af2565b611478565b6040516104b1919061588b565b60405180910390f35b3480156104c657600080fd5b506104e160048036038101906104dc91906148c1565b611490565b005b3480156104ef57600080fd5b5061050a60048036038101906105059190614af2565b6114f0565b604051610517919061588b565b60405180910390f35b34801561052c57600080fd5b5061054760048036038101906105429190614af2565b611508565b604051610554919061588b565b60405180910390f35b34801561056957600080fd5b50610584600480360381019061057f9190614b57565b6115bd565b604051610591919061588b565b60405180910390f35b3480156105a657600080fd5b506105c160048036038101906105bc9190614b1b565b61169e565b6040516105ce919061588b565b60405180910390f35b3480156105e357600080fd5b506105fe60048036038101906105f991906148c1565b6116c3565b005b34801561060c57600080fd5b5061062760048036038101906106229190614af2565b6116e3565b005b34801561063557600080fd5b50610650600480360381019061064b91906149c7565b6117da565b60405161065d919061588b565b60405180910390f35b34801561067257600080fd5b5061067b61180b565b604051610688919061588b565b60405180910390f35b34801561069d57600080fd5b506106b860048036038101906106b39190614af2565b611818565b6040516106ca969594939291906158a6565b60405180910390f35b3480156106df57600080fd5b506106fa60048036038101906106f59190614af2565b6118a4565b604051610707919061588b565b60405180910390f35b34801561071c57600080fd5b5061073760048036038101906107329190614af2565b6118f9565b604051610744919061557c565b60405180910390f35b34801561075957600080fd5b506107626119e5565b60405161076f919061588b565b60405180910390f35b34801561078457600080fd5b5061079f600480360381019061079a9190614af2565b6119eb565b6040516107ac91906154a7565b60405180910390f35b3480156107c157600080fd5b506107dc60048036038101906107d79190614af2565b611a9d565b6040516107e9919061588b565b60405180910390f35b3480156107fe57600080fd5b5061081960048036038101906108149190614af2565b611b3e565b604051610826919061588b565b60405180910390f35b34801561083b57600080fd5b506108566004803603810190610851919061485c565b611b93565b604051610863919061588b565b60405180910390f35b34801561087857600080fd5b50610893600480360381019061088e9190614b57565b611c4b565b005b3480156108a157600080fd5b506108aa611ce9565b6040516108b7919061588b565b60405180910390f35b3480156108cc57600080fd5b506108e760048036038101906108e29190614b93565b611cf6565b005b3480156108f557600080fd5b506108fe611f84565b60405161090b91906155b9565b60405180910390f35b61092e60048036038101906109299190614af2565b612016565b005b34801561093c57600080fd5b5061095760048036038101906109529190614af2565b6125d6565b60405161096491906154a7565b60405180910390f35b34801561097957600080fd5b50610994600480360381019061098f919061498b565b612694565b005b3480156109a257600080fd5b506109bd60048036038101906109b8919061485c565b612815565b6040516109ca919061557c565b60405180910390f35b3480156109df57600080fd5b506109fa60048036038101906109f59190614af2565b6128ac565b604051610a07919061557c565b60405180910390f35b348015610a1c57600080fd5b50610a376004803603810190610a329190614a9a565b612998565b005b348015610a4557600080fd5b50610a606004803603810190610a5b9190614af2565b612a67565b604051610a6d91906154a7565b60405180910390f35b348015610a8257600080fd5b50610a9d6004803603810190610a989190614b57565b612adc565b604051610aaa919061588b565b60405180910390f35b348015610abf57600080fd5b50610ada6004803603810190610ad59190614910565b612b0d565b005b348015610ae857600080fd5b50610b036004803603810190610afe9190614af2565b612b6f565b604051610b1091906154a7565b60405180910390f35b348015610b2557600080fd5b50610b406004803603810190610b3b9190614af2565b612be4565b604051610b4d91906155b9565b60405180910390f35b348015610b6257600080fd5b50610b7d6004803603810190610b789190614af2565b612d0a565b005b348015610b8b57600080fd5b50610ba66004803603810190610ba19190614a55565b6134a7565b005b348015610bb457600080fd5b50610bcf6004803603810190610bca9190614af2565b6134b5565b005b348015610bdd57600080fd5b50610bf86004803603810190610bf39190614af2565b613656565b604051610c05919061557c565b60405180910390f35b348015610c1a57600080fd5b50610c356004803603810190610c309190614af2565b6136f9565b604051610c4291906155b9565b60405180910390f35b348015610c5757600080fd5b50610c726004803603810190610c6d9190614af2565b6137c7565b604051610c7f919061588b565b60405180910390f35b610ca26004803603810190610c9d9190614af2565b613884565b005b348015610cb057600080fd5b50610ccb6004803603810190610cc69190614885565b613a8b565b604051610cd8919061559e565b60405180910390f35b348015610ced57600080fd5b50610d086004803603810190610d039190614af2565b613b1f565b604051610d15919061588b565b60405180910390f35b60007f80ac58cd000000000000000000000000000000000000000000000000000000007bffffffffffffffffffffffffffffffffffffffffffffffffffffffff1916827bffffffffffffffffffffffffffffffffffffffffffffffffffffffff19161480610de957507f5b5e139f000000000000000000000000000000000000000000000000000000007bffffffffffffffffffffffffffffffffffffffffffffffffffffffff1916827bffffffffffffffffffffffffffffffffffffffffffffffffffffffff1916145b80610df95750610df882613b74565b5b9050919050565b606060008054610e0f90615b81565b80601f0160208091040260200160405190810160405280929190818152602001828054610e3b90615b81565b8015610e885780601f10610e5d57610100808354040283529160200191610e88565b820191906000526020600020905b815481529060010190602001808311610e6b57829003601f168201915b5050505050905090565b6000610e9d82613bde565b610edc576040517f08c379a0000000000000000000000000000000000000000000000000000000008152600401610ed3906157cb565b60405180910390fd5b6004600083815260200190815260200160002060009054906101000a900473ffffffffffffffffffffffffffffffffffffffff169050919050565b6000610f22826119eb565b90508073ffffffffffffffffffffffffffffffffffffffff168373ffffffffffffffffffffffffffffffffffffffff161415610f93576040517f08c379a0000000000000000000000000000000000000000000000000000000008152600401610f8a9061582b565b60405180910390fd5b8073ffffffffffffffffffffffffffffffffffffffff16610fb2613c4a565b73ffffffffffffffffffffffffffffffffffffffff161480610fe15750610fe081610fdb613c4a565b613a8b565b5b611020576040517f08c379a00000000000000000000000000000000000000000000000000000000081526004016110179061570b565b60405180910390fd5b61102a8383613c52565b505050565b6007818154811061103f57600080fd5b906000526020600020906004020160009150905080600001805461106290615b81565b80601f016020809104026020016040519081016040528092919081815260200182805461108e90615b81565b80156110db5780601f106110b0576101008083540402835291602001916110db565b820191906000526020600020905b8154815290600101906020018083116110be57829003601f168201915b5050505050908060010160009054906101000a900473ffffffffffffffffffffffffffffffffffffffff16905082565b6000816007805490508110611155576040517f08c379a000000000000000000000000000000000000000000000000000000000815260040161114c9061566b565b60405180910390fd5b6007838154811061118f577f4e487b7100000000000000000000000000000000000000000000000000000000600052603260045260246000fd5b906000526020600020906004020160020180549050915050919050565b8060088054905081106111be57600080fd5b43600882815481106111f9577f4e487b7100000000000000000000000000000000000000000000000000000000600052603260045260246000fd5b9060005260206000209060070201600401541061121557600080fd5b6008828154811061124f577f4e487b7100000000000000000000000000000000000000000000000000000000600052603260045260246000fd5b906000526020600020906007020160050160009054906101000a900473ffffffffffffffffffffffffffffffffffffffff1673ffffffffffffffffffffffffffffffffffffffff163373ffffffffffffffffffffffffffffffffffffffff1614156112b957600080fd5b6000600d600084815260200190815260200160002060003373ffffffffffffffffffffffffffffffffffffffff1673ffffffffffffffffffffffffffffffffffffffff168152602001908152602001600020541161131657600080fd5b6000600d600084815260200190815260200160002060003373ffffffffffffffffffffffffffffffffffffffff1673ffffffffffffffffffffffffffffffffffffffff1681526020019081526020016000205490506000600d600085815260200190815260200160002060003373ffffffffffffffffffffffffffffffffffffffff1673ffffffffffffffffffffffffffffffffffffffff168152602001908152602001600020819055503373ffffffffffffffffffffffffffffffffffffffff166108fc829081150290604051600060405180830381858888f19350505050158015611407573d6000803e3d6000fd5b50505050565b6060600c600083815260200190815260200160002080548060200260200160405190810160405280929190818152602001828054801561146c57602002820191906000526020600020905b815481526020019060010190808311611458575b50505050509050919050565b600a6020528060005260406000206000915090505481565b6114a161149b613c4a565b82613d0b565b6114e0576040517f08c379a00000000000000000000000000000000000000000000000000000000081526004016114d79061584b565b60405180910390fd5b6114eb838383613de9565b505050565b600b6020528060005260406000206000915090505481565b6000816000600b60008381526020019081526020016000205411611561576040517f08c379a00000000000000000000000000000000000000000000000000000000081526004016115589061564b565b60405180910390fd5b3073ffffffffffffffffffffffffffffffffffffffff1661158184610e92565b73ffffffffffffffffffffffffffffffffffffffff16146115a157600080fd5b600b600084815260200190815260200160002054915050919050565b6000826007805490508110611607576040517f08c379a00000000000000000000000000000000000000000000000000000000081526004016115fe9061566b565b60405180910390fd5b60078481548110611641577f4e487b7100000000000000000000000000000000000000000000000000000000600052603260045260246000fd5b9060005260206000209060040201600201838154811061168a577f4e487b7100000000000000000000000000000000000000000000000000000000600052603260045260246000fd5b906000526020600020015491505092915050565b600d602052816000526040600020602052806000526040600020600091509150505481565b6116de83838360405180602001604052806000815250612b0d565b505050565b803373ffffffffffffffffffffffffffffffffffffffff16611704826119eb565b73ffffffffffffffffffffffffffffffffffffffff161461175a576040517f08c379a00000000000000000000000000000000000000000000000000000000081526004016117519061574b565b60405180910390fd5b816000600b600083815260200190815260200160002054116117b1576040517f08c379a00000000000000000000000000000000000000000000000000000000081526004016117a89061564b565b60405180910390fd5b6117bc600084610f17565b6000600b600085815260200190815260200160002081905550505050565b600960205281600052604060002081815481106117f657600080fd5b90600052602060002001600091509150505481565b6000600880549050905090565b6008818154811061182857600080fd5b90600052602060002090600702016000915090508060000154908060010160009054906101000a900473ffffffffffffffffffffffffffffffffffffffff16908060020154908060030154908060040154908060050160009054906101000a900473ffffffffffffffffffffffffffffffffffffffff16905086565b6000600882815481106118e0577f4e487b7100000000000000000000000000000000000000000000000000000000600052603260045260246000fd5b9060005260206000209060070201600001549050919050565b6060816007805490508110611943576040517f08c379a000000000000000000000000000000000000000000000000000000000815260040161193a9061566b565b60405180910390fd5b6007838154811061197d577f4e487b7100000000000000000000000000000000000000000000000000000000600052603260045260246000fd5b90600052602060002090600402016003018054806020026020016040519081016040528092919081815260200182805480156119d857602002820191906000526020600020905b8154815260200190600101908083116119c4575b5050505050915050919050565b60065481565b6000806002600084815260200190815260200160002060009054906101000a900473ffffffffffffffffffffffffffffffffffffffff169050600073ffffffffffffffffffffffffffffffffffffffff168173ffffffffffffffffffffffffffffffffffffffff161415611a94576040517f08c379a0000000000000000000000000000000000000000000000000000000008152600401611a8b9061576b565b60405180910390fd5b80915050919050565b6000816007805490508110611ae7576040517f08c379a0000000000000000000000000000000000000000000000000000000008152600401611ade9061566b565b60405180910390fd5b60078381548110611b21577f4e487b7100000000000000000000000000000000000000000000000000000000600052603260045260246000fd5b906000526020600020906004020160030180549050915050919050565b600060088281548110611b7a577f4e487b7100000000000000000000000000000000000000000000000000000000600052603260045260246000fd5b9060005260206000209060070201600301549050919050565b60008073ffffffffffffffffffffffffffffffffffffffff168273ffffffffffffffffffffffffffffffffffffffff161415611c04576040517f08c379a0000000000000000000000000000000000000000000000000000000008152600401611bfb9061572b565b60405180910390fd5b600360008373ffffffffffffffffffffffffffffffffffffffff1673ffffffffffffffffffffffffffffffffffffffff168152602001908152602001600020549050919050565b813373ffffffffffffffffffffffffffffffffffffffff16611c6c826119eb565b73ffffffffffffffffffffffffffffffffffffffff1614611cc2576040517f08c379a0000000000000000000000000000000000000000000000000000000008152600401611cb99061574b565b60405180910390fd5b611ccc3084610f17565b81600b600085815260200190815260200160002081905550505050565b6000600780549050905090565b823373ffffffffffffffffffffffffffffffffffffffff16611d17826119eb565b73ffffffffffffffffffffffffffffffffffffffff1614611d6d576040517f08c379a0000000000000000000000000000000000000000000000000000000008152600401611d649061574b565b60405180910390fd5b6000600b60008681526020019081526020016000205414611dc3576040517f08c379a0000000000000000000000000000000000000000000000000000000008152600401611dba9061586b565b60405180910390fd5b611dce333086611490565b6060600c6000868152602001908152602001600020600880549050908060018154018082558091505060019003906000526020600020016000909190919091505560086040518060e001604052808781526020013373ffffffffffffffffffffffffffffffffffffffff16815260200186815260200185815260200162041eb043611e5991906159f9565b8152602001600073ffffffffffffffffffffffffffffffffffffffff1681526020018381525090806001815401808255809150506001900390600052602060002090600702016000909190919091506000820151816000015560208201518160010160006101000a81548173ffffffffffffffffffffffffffffffffffffffff021916908373ffffffffffffffffffffffffffffffffffffffff16021790555060408201518160020155606082015181600301556080820151816004015560a08201518160050160006101000a81548173ffffffffffffffffffffffffffffffffffffffff021916908373ffffffffffffffffffffffffffffffffffffffff16021790555060c0820151816006019080519060200190611f7a929190614651565b5050505050505050565b606060018054611f9390615b81565b80601f0160208091040260200160405190810160405280929190818152602001828054611fbf90615b81565b801561200c5780601f10611fe15761010080835404028352916020019161200c565b820191906000526020600020905b815481529060010190602001808311611fef57829003601f168201915b5050505050905090565b806008805490501161202757600080fd5b4360088281548110612062577f4e487b7100000000000000000000000000000000000000000000000000000000600052603260045260246000fd5b9060005260206000209060070201600401541161207e57600080fd5b600881815481106120b8577f4e487b7100000000000000000000000000000000000000000000000000000000600052603260045260246000fd5b906000526020600020906007020160010160009054906101000a900473ffffffffffffffffffffffffffffffffffffffff1673ffffffffffffffffffffffffffffffffffffffff163373ffffffffffffffffffffffffffffffffffffffff16141561212257600080fd5b6008818154811061215c577f4e487b7100000000000000000000000000000000000000000000000000000000600052603260045260246000fd5b906000526020600020906007020160050160009054906101000a900473ffffffffffffffffffffffffffffffffffffffff1673ffffffffffffffffffffffffffffffffffffffff163373ffffffffffffffffffffffffffffffffffffffff1614156121c657600080fd5b600060088281548110612202577f4e487b7100000000000000000000000000000000000000000000000000000000600052603260045260246000fd5b90600052602060002090600702016006018054905011156123c75760088181548110612257577f4e487b7100000000000000000000000000000000000000000000000000000000600052603260045260246000fd5b906000526020600020906007020160030154600882815481106122a3577f4e487b7100000000000000000000000000000000000000000000000000000000600052603260045260246000fd5b90600052602060002090600702016006016001600884815481106122f0577f4e487b7100000000000000000000000000000000000000000000000000000000600052603260045260246000fd5b90600052602060002090600702016006018054905061230f9190615a4f565b81548110612346577f4e487b7100000000000000000000000000000000000000000000000000000000600052603260045260246000fd5b906000526020600020015461235b91906159f9565b600d600083815260200190815260200160002060003373ffffffffffffffffffffffffffffffffffffffff1673ffffffffffffffffffffffffffffffffffffffff16815260200190815260200160002054346123b791906159f9565b10156123c257600080fd5b612420565b60088181548110612401577f4e487b7100000000000000000000000000000000000000000000000000000000600052603260045260246000fd5b90600052602060002090600702016002015434101561241f57600080fd5b5b34600d600083815260200190815260200160002060003373ffffffffffffffffffffffffffffffffffffffff1673ffffffffffffffffffffffffffffffffffffffff168152602001908152602001600020600082825461248091906159f9565b9250508190555033600882815481106124c2577f4e487b7100000000000000000000000000000000000000000000000000000000600052603260045260246000fd5b906000526020600020906007020160050160006101000a81548173ffffffffffffffffffffffffffffffffffffffff021916908373ffffffffffffffffffffffffffffffffffffffff1602179055506008818154811061254b577f4e487b7100000000000000000000000000000000000000000000000000000000600052603260045260246000fd5b9060005260206000209060070201600601600d600083815260200190815260200160002060003373ffffffffffffffffffffffffffffffffffffffff1673ffffffffffffffffffffffffffffffffffffffff16815260200190815260200160002054908060018154018082558091505060019003906000526020600020016000909190919091505550565b6000816007805490508110612620576040517f08c379a00000000000000000000000000000000000000000000000000000000081526004016126179061566b565b60405180910390fd5b6007838154811061265a577f4e487b7100000000000000000000000000000000000000000000000000000000600052603260045260246000fd5b906000526020600020906004020160010160009054906101000a900473ffffffffffffffffffffffffffffffffffffffff16915050919050565b61269c613c4a565b73ffffffffffffffffffffffffffffffffffffffff168273ffffffffffffffffffffffffffffffffffffffff16141561270a576040517f08c379a0000000000000000000000000000000000000000000000000000000008152600401612701906156cb565b60405180910390fd5b8060056000612717613c4a565b73ffffffffffffffffffffffffffffffffffffffff1673ffffffffffffffffffffffffffffffffffffffff16815260200190815260200160002060008473ffffffffffffffffffffffffffffffffffffffff1673ffffffffffffffffffffffffffffffffffffffff16815260200190815260200160002060006101000a81548160ff0219169083151502179055508173ffffffffffffffffffffffffffffffffffffffff166127c4613c4a565b73ffffffffffffffffffffffffffffffffffffffff167f17307eab39ab6107e8899845ad3d59bd9653f200f220920489ca2b5937696c3183604051612809919061559e565b60405180910390a35050565b6060600960008373ffffffffffffffffffffffffffffffffffffffff1673ffffffffffffffffffffffffffffffffffffffff1681526020019081526020016000208054806020026020016040519081016040528092919081815260200182805480156128a057602002820191906000526020600020905b81548152602001906001019080831161288c575b50505050509050919050565b60608160078054905081106128f6576040517f08c379a00000000000000000000000000000000000000000000000000000000081526004016128ed9061566b565b60405180910390fd5b60078381548110612930577f4e487b7100000000000000000000000000000000000000000000000000000000600052603260045260246000fd5b906000526020600020906004020160020180548060200260200160405190810160405280929190818152602001828054801561298b57602002820191906000526020600020905b815481526020019060010190808311612977575b5050505050915050919050565b8060078054905081106129e0576040517f08c379a00000000000000000000000000000000000000000000000000000000081526004016129d79061566b565b60405180910390fd5b60078281548110612a1a577f4e487b7100000000000000000000000000000000000000000000000000000000600052603260045260246000fd5b90600052602060002090600402016002016007805490509080600181540180825580915050600190039060005260206000200160009091909190915055612a618484614045565b50505050565b600060088281548110612aa3577f4e487b7100000000000000000000000000000000000000000000000000000000600052603260045260246000fd5b906000526020600020906007020160050160009054906101000a900473ffffffffffffffffffffffffffffffffffffffff169050919050565b600c6020528160005260406000208181548110612af857600080fd5b90600052602060002001600091509150505481565b612b1e612b18613c4a565b83613d0b565b612b5d576040517f08c379a0000000000000000000000000000000000000000000000000000000008152600401612b549061584b565b60405180910390fd5b612b69848484846141ff565b50505050565b600060088281548110612bab577f4e487b7100000000000000000000000000000000000000000000000000000000600052603260045260246000fd5b906000526020600020906007020160010160009054906101000a900473ffffffffffffffffffffffffffffffffffffffff169050919050565b6060816007805490508110612c2e576040517f08c379a0000000000000000000000000000000000000000000000000000000008152600401612c259061566b565b60405180910390fd5b60078381548110612c68577f4e487b7100000000000000000000000000000000000000000000000000000000600052603260045260246000fd5b90600052602060002090600402016000018054612c8490615b81565b80601f0160208091040260200160405190810160405280929190818152602001828054612cb090615b81565b8015612cfd5780601f10612cd257610100808354040283529160200191612cfd565b820191906000526020600020905b815481529060010190602001808311612ce057829003601f168201915b5050505050915050919050565b806008805490508110612d1c57600080fd5b4360088281548110612d57577f4e487b7100000000000000000000000000000000000000000000000000000000600052603260045260246000fd5b90600052602060002090600702016004015410612d7357600080fd5b60088281548110612dad577f4e487b7100000000000000000000000000000000000000000000000000000000600052603260045260246000fd5b906000526020600020906007020160010160009054906101000a900473ffffffffffffffffffffffffffffffffffffffff1673ffffffffffffffffffffffffffffffffffffffff163373ffffffffffffffffffffffffffffffffffffffff161480612eae575060088281548110612e4d577f4e487b7100000000000000000000000000000000000000000000000000000000600052603260045260246000fd5b906000526020600020906007020160050160009054906101000a900473ffffffffffffffffffffffffffffffffffffffff1673ffffffffffffffffffffffffffffffffffffffff163373ffffffffffffffffffffffffffffffffffffffff16145b612eb757600080fd5b600073ffffffffffffffffffffffffffffffffffffffff1660088381548110612f09577f4e487b7100000000000000000000000000000000000000000000000000000000600052603260045260246000fd5b906000526020600020906007020160050160009054906101000a900473ffffffffffffffffffffffffffffffffffffffff1673ffffffffffffffffffffffffffffffffffffffff161461337d576000600d6000848152602001908152602001600020600060088581548110612fa7577f4e487b7100000000000000000000000000000000000000000000000000000000600052603260045260246000fd5b906000526020600020906007020160050160009054906101000a900473ffffffffffffffffffffffffffffffffffffffff1673ffffffffffffffffffffffffffffffffffffffff1673ffffffffffffffffffffffffffffffffffffffff16815260200190815260200160002054141561301f57600080fd5b6000600d6000848152602001908152602001600020600060088581548110613070577f4e487b7100000000000000000000000000000000000000000000000000000000600052603260045260246000fd5b906000526020600020906007020160050160009054906101000a900473ffffffffffffffffffffffffffffffffffffffff1673ffffffffffffffffffffffffffffffffffffffff1673ffffffffffffffffffffffffffffffffffffffff1681526020019081526020016000205490506000600d6000858152602001908152602001600020600060088681548110613130577f4e487b7100000000000000000000000000000000000000000000000000000000600052603260045260246000fd5b906000526020600020906007020160050160009054906101000a900473ffffffffffffffffffffffffffffffffffffffff1673ffffffffffffffffffffffffffffffffffffffff1673ffffffffffffffffffffffffffffffffffffffff16815260200190815260200160002081905550600883815481106131da577f4e487b7100000000000000000000000000000000000000000000000000000000600052603260045260246000fd5b906000526020600020906007020160010160009054906101000a900473ffffffffffffffffffffffffffffffffffffffff1673ffffffffffffffffffffffffffffffffffffffff166108fc829081150290604051600060405180830381858888f19350505050158015613251573d6000803e3d6000fd5b503073ffffffffffffffffffffffffffffffffffffffff166342842e0e30600886815481106132a9577f4e487b7100000000000000000000000000000000000000000000000000000000600052603260045260246000fd5b906000526020600020906007020160050160009054906101000a900473ffffffffffffffffffffffffffffffffffffffff1660088781548110613315577f4e487b7100000000000000000000000000000000000000000000000000000000600052603260045260246000fd5b9060005260206000209060070201600001546040518463ffffffff1660e01b8152600401613345939291906154f9565b600060405180830381600087803b15801561335f57600080fd5b505af1158015613373573d6000803e3d6000fd5b50505050506134a3565b3073ffffffffffffffffffffffffffffffffffffffff166342842e0e30600885815481106133d4577f4e487b7100000000000000000000000000000000000000000000000000000000600052603260045260246000fd5b906000526020600020906007020160010160009054906101000a900473ffffffffffffffffffffffffffffffffffffffff1660088681548110613440577f4e487b7100000000000000000000000000000000000000000000000000000000600052603260045260246000fd5b9060005260206000209060070201600001546040518463ffffffff1660e01b8152600401613470939291906154c2565b600060405180830381600087803b15801561348a57600080fd5b505af115801561349e573d6000803e3d6000fd5b505050505b5050565b6134b18282614045565b5050565b8060078054905081106134fd576040517f08c379a00000000000000000000000000000000000000000000000000000000081526004016134f49061566b565b60405180910390fd5b60078281548110613537577f4e487b7100000000000000000000000000000000000000000000000000000000600052603260045260246000fd5b906000526020600020906004020160010160009054906101000a900473ffffffffffffffffffffffffffffffffffffffff1673ffffffffffffffffffffffffffffffffffffffff163373ffffffffffffffffffffffffffffffffffffffff16146135a057600080fd5b6135ac3360065461425b565b81600a600060065481526020019081526020016000208190555060078281548110613600577f4e487b7100000000000000000000000000000000000000000000000000000000600052603260045260246000fd5b906000526020600020906004020160030160065490806001815401808255809150506001900390600052602060002001600090919091909150556006600081548092919061364d90615bb3565b91905055505050565b606060088281548110613692577f4e487b7100000000000000000000000000000000000000000000000000000000600052603260045260246000fd5b90600052602060002090600702016006018054806020026020016040519081016040528092919081815260200182805480156136ed57602002820191906000526020600020905b8154815260200190600101908083116136d9575b50505050509050919050565b606061370482613bde565b613743576040517f08c379a000000000000000000000000000000000000000000000000000000000815260040161373a9061580b565b60405180910390fd5b6007600a60008481526020019081526020016000205481548110613790577f4e487b7100000000000000000000000000000000000000000000000000000000600052603260045260246000fd5b90600052602060002090600402016000016040516020016137b19190615485565b6040516020818303038152906040529050919050565b60004360088381548110613804577f4e487b7100000000000000000000000000000000000000000000000000000000600052603260045260246000fd5b906000526020600020906007020160040154111561387a574360088381548110613857577f4e487b7100000000000000000000000000000000000000000000000000000000600052603260045260246000fd5b9060005260206000209060070201600401546138739190615a4f565b905061387f565b600090505b919050565b806000600b600083815260200190815260200160002054116138db576040517f08c379a00000000000000000000000000000000000000000000000000000000081526004016138d29061564b565b60405180910390fd5b600b600083815260200190815260200160002054341015613931576040517f08c379a00000000000000000000000000000000000000000000000000000000081526004016139289061560b565b60405180910390fd5b61393a826119eb565b73ffffffffffffffffffffffffffffffffffffffff163373ffffffffffffffffffffffffffffffffffffffff1614156139a8576040517f08c379a000000000000000000000000000000000000000000000000000000000815260040161399f906157ab565b60405180910390fd5b6000600b6000848152602001908152602001600020819055506139ca826119eb565b73ffffffffffffffffffffffffffffffffffffffff166108fc349081150290604051600060405180830381858888f19350505050158015613a0f573d6000803e3d6000fd5b503073ffffffffffffffffffffffffffffffffffffffff166342842e0e613a35846119eb565b33856040518463ffffffff1660e01b8152600401613a55939291906154f9565b600060405180830381600087803b158015613a6f57600080fd5b505af1158015613a83573d6000803e3d6000fd5b505050505050565b6000600560008473ffffffffffffffffffffffffffffffffffffffff1673ffffffffffffffffffffffffffffffffffffffff16815260200190815260200160002060008373ffffffffffffffffffffffffffffffffffffffff1673ffffffffffffffffffffffffffffffffffffffff16815260200190815260200160002060009054906101000a900460ff16905092915050565b600060088281548110613b5b577f4e487b7100000000000000000000000000000000000000000000000000000000600052603260045260246000fd5b9060005260206000209060070201600201549050919050565b60007f01ffc9a7000000000000000000000000000000000000000000000000000000007bffffffffffffffffffffffffffffffffffffffffffffffffffffffff1916827bffffffffffffffffffffffffffffffffffffffffffffffffffffffff1916149050919050565b60008073ffffffffffffffffffffffffffffffffffffffff166002600084815260200190815260200160002060009054906101000a900473ffffffffffffffffffffffffffffffffffffffff1673ffffffffffffffffffffffffffffffffffffffff1614159050919050565b600033905090565b816004600083815260200190815260200160002060006101000a81548173ffffffffffffffffffffffffffffffffffffffff021916908373ffffffffffffffffffffffffffffffffffffffff160217905550808273ffffffffffffffffffffffffffffffffffffffff16613cc5836119eb565b73ffffffffffffffffffffffffffffffffffffffff167f8c5be1e5ebec7d5bd14f71427d1e84f3dd0314c0f7b2291e5b200ac8c7c3b92560405160405180910390a45050565b6000613d1682613bde565b613d55576040517f08c379a0000000000000000000000000000000000000000000000000000000008152600401613d4c906156eb565b60405180910390fd5b6000613d60836119eb565b90508073ffffffffffffffffffffffffffffffffffffffff168473ffffffffffffffffffffffffffffffffffffffff161480613dcf57508373ffffffffffffffffffffffffffffffffffffffff16613db784610e92565b73ffffffffffffffffffffffffffffffffffffffff16145b80613de05750613ddf8185613a8b565b5b91505092915050565b8273ffffffffffffffffffffffffffffffffffffffff16613e09826119eb565b73ffffffffffffffffffffffffffffffffffffffff1614613e5f576040517f08c379a0000000000000000000000000000000000000000000000000000000008152600401613e56906157eb565b60405180910390fd5b600073ffffffffffffffffffffffffffffffffffffffff168273ffffffffffffffffffffffffffffffffffffffff161415613ecf576040517f08c379a0000000000000000000000000000000000000000000000000000000008152600401613ec6906156ab565b60405180910390fd5b613eda838383614279565b613ee5600082613c52565b6001600360008573ffffffffffffffffffffffffffffffffffffffff1673ffffffffffffffffffffffffffffffffffffffff1681526020019081526020016000206000828254613f359190615a4f565b925050819055506001600360008473ffffffffffffffffffffffffffffffffffffffff1673ffffffffffffffffffffffffffffffffffffffff1681526020019081526020016000206000828254613f8c91906159f9565b92505081905550816002600083815260200190815260200160002060006101000a81548173ffffffffffffffffffffffffffffffffffffffff021916908373ffffffffffffffffffffffffffffffffffffffff160217905550808273ffffffffffffffffffffffffffffffffffffffff168473ffffffffffffffffffffffffffffffffffffffff167fddf252ad1be2c89b69c2b068fc378daa952ba7f163c4a11628f55a4df523b3ef60405160405180910390a4505050565b600960003373ffffffffffffffffffffffffffffffffffffffff1673ffffffffffffffffffffffffffffffffffffffff16815260200190815260200160002060078054905090806001815401808255809150506001900390600052602060002001600090919091909150556060806007604051806080016040528086868080601f016020809104026020016040519081016040528093929190818152602001838380828437600081840152601f19601f8201169050808301925050505050505081526020013373ffffffffffffffffffffffffffffffffffffffff168152602001848152602001838152509080600181540180825580915050600190039060005260206000209060040201600090919091909150600082015181600001908051906020019061417592919061469e565b5060208201518160010160006101000a81548173ffffffffffffffffffffffffffffffffffffffff021916908373ffffffffffffffffffffffffffffffffffffffff16021790555060408201518160020190805190602001906141d9929190614651565b5060608201518160030190805190602001906141f6929190614651565b50505050505050565b61420a848484613de9565b6142168484848461427e565b614255576040517f08c379a000000000000000000000000000000000000000000000000000000000815260040161424c9061562b565b60405180910390fd5b50505050565b614275828260405180602001604052806000815250614415565b5050565b505050565b600061429f8473ffffffffffffffffffffffffffffffffffffffff16614470565b15614408578373ffffffffffffffffffffffffffffffffffffffff1663150b7a026142c8613c4a565b8786866040518563ffffffff1660e01b81526004016142ea9493929190615530565b602060405180830381600087803b15801561430457600080fd5b505af192505050801561433557506040513d601f19601f820116820180604052508101906143329190614a2c565b60015b6143b8573d8060008114614365576040519150601f19603f3d011682016040523d82523d6000602084013e61436a565b606091505b506000815114156143b0576040517f08c379a00000000000000000000000000000000000000000000000000000000081526004016143a79061562b565b60405180910390fd5b805181602001fd5b63150b7a0260e01b7bffffffffffffffffffffffffffffffffffffffffffffffffffffffff1916817bffffffffffffffffffffffffffffffffffffffffffffffffffffffff19161491505061440d565b600190505b949350505050565b61441f8383614483565b61442c600084848461427e565b61446b576040517f08c379a00000000000000000000000000000000000000000000000000000000081526004016144629061562b565b60405180910390fd5b505050565b600080823b905060008111915050919050565b600073ffffffffffffffffffffffffffffffffffffffff168273ffffffffffffffffffffffffffffffffffffffff1614156144f3576040517f08c379a00000000000000000000000000000000000000000000000000000000081526004016144ea9061578b565b60405180910390fd5b6144fc81613bde565b1561453c576040517f08c379a00000000000000000000000000000000000000000000000000000000081526004016145339061568b565b60405180910390fd5b61454860008383614279565b6001600360008473ffffffffffffffffffffffffffffffffffffffff1673ffffffffffffffffffffffffffffffffffffffff168152602001908152602001600020600082825461459891906159f9565b92505081905550816002600083815260200190815260200160002060006101000a81548173ffffffffffffffffffffffffffffffffffffffff021916908373ffffffffffffffffffffffffffffffffffffffff160217905550808273ffffffffffffffffffffffffffffffffffffffff16600073ffffffffffffffffffffffffffffffffffffffff167fddf252ad1be2c89b69c2b068fc378daa952ba7f163c4a11628f55a4df523b3ef60405160405180910390a45050565b82805482825590600052602060002090810192821561468d579160200282015b8281111561468c578251825591602001919060010190614671565b5b50905061469a9190614724565b5090565b8280546146aa90615b81565b90600052602060002090601f0160209004810192826146cc5760008555614713565b82601f106146e557805160ff1916838001178555614713565b82800160010185558215614713579182015b828111156147125782518255916020019190600101906146f7565b5b5090506147209190614724565b5090565b5b8082111561473d576000816000905550600101614725565b5090565b600061475461474f84615938565b615907565b90508281526020810184848401111561476c57600080fd5b614777848285615b3f565b509392505050565b60008135905061478e81615c9a565b92915050565b6000813590506147a381615cb1565b92915050565b6000813590506147b881615cc8565b92915050565b6000815190506147cd81615cc8565b92915050565b600082601f8301126147e457600080fd5b81356147f4848260208601614741565b91505092915050565b60008083601f84011261480f57600080fd5b8235905067ffffffffffffffff81111561482857600080fd5b60208301915083600182028301111561484057600080fd5b9250929050565b60008135905061485681615cdf565b92915050565b60006020828403121561486e57600080fd5b600061487c8482850161477f565b91505092915050565b6000806040838503121561489857600080fd5b60006148a68582860161477f565b92505060206148b78582860161477f565b9150509250929050565b6000806000606084860312156148d657600080fd5b60006148e48682870161477f565b93505060206148f58682870161477f565b925050604061490686828701614847565b9150509250925092565b6000806000806080858703121561492657600080fd5b60006149348782880161477f565b94505060206149458782880161477f565b935050604061495687828801614847565b925050606085013567ffffffffffffffff81111561497357600080fd5b61497f878288016147d3565b91505092959194509250565b6000806040838503121561499e57600080fd5b60006149ac8582860161477f565b92505060206149bd85828601614794565b9150509250929050565b600080604083850312156149da57600080fd5b60006149e88582860161477f565b92505060206149f985828601614847565b9150509250929050565b600060208284031215614a1557600080fd5b6000614a23848285016147a9565b91505092915050565b600060208284031215614a3e57600080fd5b6000614a4c848285016147be565b91505092915050565b60008060208385031215614a6857600080fd5b600083013567ffffffffffffffff811115614a8257600080fd5b614a8e858286016147fd565b92509250509250929050565b600080600060408486031215614aaf57600080fd5b600084013567ffffffffffffffff811115614ac957600080fd5b614ad5868287016147fd565b93509350506020614ae886828701614847565b9150509250925092565b600060208284031215614b0457600080fd5b6000614b1284828501614847565b91505092915050565b60008060408385031215614b2e57600080fd5b6000614b3c85828601614847565b9250506020614b4d8582860161477f565b9150509250929050565b60008060408385031215614b6a57600080fd5b6000614b7885828601614847565b9250506020614b8985828601614847565b9150509250929050565b600080600060608486031215614ba857600080fd5b6000614bb686828701614847565b9350506020614bc786828701614847565b9250506040614bd886828701614847565b9150509250925092565b6000614bee8383615467565b60208301905092915050565b614c0381615b09565b82525050565b614c1281615a95565b82525050565b614c2181615a83565b82525050565b6000614c328261598d565b614c3c81856159bb565b9350614c4783615968565b8060005b83811015614c78578151614c5f8882614be2565b9750614c6a836159ae565b925050600181019050614c4b565b5085935050505092915050565b614c8e81615aa7565b82525050565b6000614c9f82615998565b614ca981856159cc565b9350614cb9818560208601615b4e565b614cc281615c89565b840191505092915050565b6000614cd8826159a3565b614ce281856159dd565b9350614cf2818560208601615b4e565b614cfb81615c89565b840191505092915050565b60008154614d1381615b81565b614d1d81866159ee565b94506001821660008114614d385760018114614d4957614d7c565b60ff19831686528186019350614d7c565b614d5285615978565b60005b83811015614d7457815481890152600182019150602081019050614d55565b838801955050505b50505092915050565b6000614d926015836159dd565b91507f4e6f7420656e6f7567682066756e64732073656e7400000000000000000000006000830152602082019050919050565b6000614dd26032836159dd565b91507f4552433732313a207472616e7366657220746f206e6f6e20455243373231526560008301527f63656976657220696d706c656d656e74657200000000000000000000000000006020830152604082019050919050565b6000614e38601a836159dd565b91507f5468697320746f6b656e206973206e6f7420666f722073616c650000000000006000830152602082019050919050565b6000614e78600c836159dd565b91507f496e76616c696420506f737400000000000000000000000000000000000000006000830152602082019050919050565b6000614eb8601c836159dd565b91507f4552433732313a20746f6b656e20616c7265616479206d696e746564000000006000830152602082019050919050565b6000614ef86024836159dd565b91507f4552433732313a207472616e7366657220746f20746865207a65726f2061646460008301527f72657373000000000000000000000000000000000000000000000000000000006020830152604082019050919050565b6000614f5e6019836159dd565b91507f4552433732313a20617070726f766520746f2063616c6c6572000000000000006000830152602082019050919050565b6000614f9e602c836159dd565b91507f4552433732313a206f70657261746f7220717565727920666f72206e6f6e657860008301527f697374656e7420746f6b656e00000000000000000000000000000000000000006020830152604082019050919050565b60006150046038836159dd565b91507f4552433732313a20617070726f76652063616c6c6572206973206e6f74206f7760008301527f6e6572206e6f7220617070726f76656420666f7220616c6c00000000000000006020830152604082019050919050565b600061506a6015836159ee565b91507f68747470733a2f2f697066732e696f2f697066732f00000000000000000000006000830152601582019050919050565b60006150aa602a836159dd565b91507f4552433732313a2062616c616e636520717565727920666f7220746865207a6560008301527f726f2061646472657373000000000000000000000000000000000000000000006020830152604082019050919050565b60006151106018836159dd565b91507f596f7520646f6e2774206f776e207468697320746f6b656e00000000000000006000830152602082019050919050565b60006151506029836159dd565b91507f4552433732313a206f776e657220717565727920666f72206e6f6e657869737460008301527f656e7420746f6b656e00000000000000000000000000000000000000000000006020830152604082019050919050565b60006151b66020836159dd565b91507f4552433732313a206d696e7420746f20746865207a65726f20616464726573736000830152602082019050919050565b60006151f6601a836159dd565b91507f596f7520616c7265616479206f776e207468697320746f6b656e0000000000006000830152602082019050919050565b6000615236602c836159dd565b91507f4552433732313a20617070726f76656420717565727920666f72206e6f6e657860008301527f697374656e7420746f6b656e00000000000000000000000000000000000000006020830152604082019050919050565b600061529c6029836159dd565b91507f4552433732313a207472616e73666572206f6620746f6b656e2074686174206960008301527f73206e6f74206f776e00000000000000000000000000000000000000000000006020830152604082019050919050565b6000615302602f836159dd565b91507f4552433732314d657461646174613a2055524920717565727920666f72206e6f60008301527f6e6578697374656e7420746f6b656e00000000000000000000000000000000006020830152604082019050919050565b60006153686021836159dd565b91507f4552433732313a20617070726f76616c20746f2063757272656e74206f776e6560008301527f72000000000000000000000000000000000000000000000000000000000000006020830152604082019050919050565b60006153ce6031836159dd565b91507f4552433732313a207472616e736665722063616c6c6572206973206e6f74206f60008301527f776e6572206e6f7220617070726f7665640000000000000000000000000000006020830152604082019050919050565b60006154346019836159dd565b91507f546f6b656e20697320616c726561647920666f722073616c65000000000000006000830152602082019050919050565b61547081615aff565b82525050565b61547f81615aff565b82525050565b60006154908261505d565b915061549c8284614d06565b915081905092915050565b60006020820190506154bc6000830184614c18565b92915050565b60006060820190506154d76000830186614c18565b6154e46020830185614bfa565b6154f16040830184615476565b949350505050565b600060608201905061550e6000830186614c18565b61551b6020830185614c18565b6155286040830184615476565b949350505050565b60006080820190506155456000830187614c18565b6155526020830186614c18565b61555f6040830185615476565b81810360608301526155718184614c94565b905095945050505050565b600060208201905081810360008301526155968184614c27565b905092915050565b60006020820190506155b36000830184614c85565b92915050565b600060208201905081810360008301526155d38184614ccd565b905092915050565b600060408201905081810360008301526155f58185614ccd565b90506156046020830184614c18565b9392505050565b6000602082019050818103600083015261562481614d85565b9050919050565b6000602082019050818103600083015261564481614dc5565b9050919050565b6000602082019050818103600083015261566481614e2b565b9050919050565b6000602082019050818103600083015261568481614e6b565b9050919050565b600060208201905081810360008301526156a481614eab565b9050919050565b600060208201905081810360008301526156c481614eeb565b9050919050565b600060208201905081810360008301526156e481614f51565b9050919050565b6000602082019050818103600083015261570481614f91565b9050919050565b6000602082019050818103600083015261572481614ff7565b9050919050565b600060208201905081810360008301526157448161509d565b9050919050565b6000602082019050818103600083015261576481615103565b9050919050565b6000602082019050818103600083015261578481615143565b9050919050565b600060208201905081810360008301526157a4816151a9565b9050919050565b600060208201905081810360008301526157c4816151e9565b9050919050565b600060208201905081810360008301526157e481615229565b9050919050565b600060208201905081810360008301526158048161528f565b9050919050565b60006020820190508181036000830152615824816152f5565b9050919050565b600060208201905081810360008301526158448161535b565b9050919050565b60006020820190508181036000830152615864816153c1565b9050919050565b6000602082019050818103600083015261588481615427565b9050919050565b60006020820190506158a06000830184615476565b92915050565b600060c0820190506158bb6000830189615476565b6158c86020830188614c09565b6158d56040830187615476565b6158e26060830186615476565b6158ef6080830185615476565b6158fc60a0830184614c18565b979650505050505050565b6000604051905081810181811067ffffffffffffffff8211171561592e5761592d615c5a565b5b8060405250919050565b600067ffffffffffffffff82111561595357615952615c5a565b5b601f19601f8301169050602081019050919050565b6000819050602082019050919050565b60008190508160005260206000209050919050565b600081519050919050565b600081519050919050565b600081519050919050565b6000602082019050919050565b600082825260208201905092915050565b600082825260208201905092915050565b600082825260208201905092915050565b600081905092915050565b6000615a0482615aff565b9150615a0f83615aff565b9250827fffffffffffffffffffffffffffffffffffffffffffffffffffffffffffffffff03821115615a4457615a43615bfc565b5b828201905092915050565b6000615a5a82615aff565b9150615a6583615aff565b925082821015615a7857615a77615bfc565b5b828203905092915050565b6000615a8e82615adf565b9050919050565b6000615aa082615adf565b9050919050565b60008115159050919050565b60007fffffffff0000000000000000000000000000000000000000000000000000000082169050919050565b600073ffffffffffffffffffffffffffffffffffffffff82169050919050565b6000819050919050565b6000615b1482615b1b565b9050919050565b6000615b2682615b2d565b9050919050565b6000615b3882615adf565b9050919050565b82818337600083830152505050565b60005b83811015615b6c578082015181840152602081019050615b51565b83811115615b7b576000848401525b50505050565b60006002820490506001821680615b9957607f821691505b60208210811415615bad57615bac615c2b565b5b50919050565b6000615bbe82615aff565b91507fffffffffffffffffffffffffffffffffffffffffffffffffffffffffffffffff821415615bf157615bf0615bfc565b5b600182019050919050565b7f4e487b7100000000000000000000000000000000000000000000000000000000600052601160045260246000fd5b7f4e487b7100000000000000000000000000000000000000000000000000000000600052602260045260246000fd5b7f4e487b7100000000000000000000000000000000000000000000000000000000600052604160045260246000fd5b6000601f19601f8301169050919050565b615ca381615a83565b8114615cae57600080fd5b50565b615cba81615aa7565b8114615cc557600080fd5b50565b615cd181615ab3565b8114615cdc57600080fd5b50565b615ce881615aff565b8114615cf357600080fd5b5056fea2646970667358221220eae06a2a7e7d6a9baca57b6b67920ff7f96c7ed59621533e020ab05a08257edf64736f6c63430008000033",
  "immutableReferences": {},
  "source": "// SPDX-License-Identifier: MIT\npragma solidity 0.8.0;\n\nimport \"../node_modules/@openzeppelin/contracts/token/ERC721/ERC721.sol\";\n\n/// @title Crypto Posts\n/// @author Mario Mazzaferro\n/// @notice Manage Copyright Permissions through License Associated NFTs (LANs)\ncontract CryptoPosts is ERC721 {\n    /// @notice Tracks number of minted tokens\n    uint256 public counter;\n\n    /// @notice Stores Post's data\n    struct Post {\n        string cid;\n        address author;\n        uint256[] comments;\n        uint256[] tokens;\n    }\n\n    /// @notice Stores Auction's data\n    struct Auction {\n        uint256 tokenId;\n        address payable seller;\n        uint256 minValue;\n        uint256 increment;\n        uint256 endBlock;\n        address topBidder;\n        uint256[] bids;\n    }\n\n    /// @notice List of all Posts ordered by Post Id ascending order\n    Post[] public posts;\n\n    /// @notice List of all Auctions ordered by Auction Id ascending order\n    Auction[] public auctions;\n\n    /// @notice Relates Writer's Address to its respective Post Collection\n    mapping(address => uint256[]) public collections;\n\n    /// @notice Relates token Id to its respective Post\n    mapping(uint256 => uint256) public tokenPost;\n\n    /// @notice Relates token Id to its respective price\n    mapping(uint256 => uint256) public price;\n\n    /// @notice Relates token Ids to their historic Auction Ids\n    mapping(uint256 => uint256[]) public tokenAuctions;\n\n    /// @notice Relates Auction Id to it's mapping of bidders to funds\n    mapping(uint256 => mapping(address => uint256)) public funds;\n\n    /// @notice Checks if msg.sender owns tokenId\n    modifier OnlyTokenOwner(uint256 tokenId) {\n        require(ownerOf(tokenId) == msg.sender, \"You don't own this token\");\n        _;\n    }\n\n    /// @notice Checks if tokenId is for sale\n    modifier HasPrice(uint256 tokenId) {\n        require(price[tokenId] > 0, \"This token is not for sale\");\n        _;\n    }\n\n    /// @notice Checks if postId is an existing Post\n    modifier validPostId(uint256 postId) {\n        require(postId < posts.length, \"Invalid Post\");\n        _;\n    }\n\n    /// @notice Checks if auctionId is from a valid and ended Auction\n    modifier EndedAuction(uint256 auctionId) {\n        require(auctionId < auctions.length);\n        require(auctions[auctionId].endBlock < block.number);\n        _;\n    }\n\n    /// @notice Sets initial values for the ERC-721 standard\n    constructor() ERC721(\"CryptoPosts\", \"CPT\") {}\n\n    /// @notice Returns MetadataURI for that specific tokenId\n    /// @param tokenId Id of the specific Token\n    function tokenURI(uint256 tokenId)\n        public\n        view\n        override\n        returns (string memory)\n    {\n        require(\n            _exists(tokenId),\n            \"ERC721Metadata: URI query for nonexistent token\"\n        );\n        return\n            string(\n                abi.encodePacked(\n                    \"https://ipfs.io/ipfs/\",\n                    posts[tokenPost[tokenId]].cid\n                )\n            );\n    }\n\n    /// @notice Effectively publishes Post\n    /// @param newCid IPFS CID of the Post that is being published\n    function _publishValidPost(string calldata newCid) private {\n        collections[msg.sender].push(posts.length);\n        uint256[] memory comments;\n        uint256[] memory tokens;\n        posts.push(Post(newCid, msg.sender, comments, tokens));\n    }\n\n    /// @notice Publishes Post\n    /// @param newCid IPFS CID of the Post that is being published\n    function publishPost(string calldata newCid) external {\n        _publishValidPost(newCid);\n    }\n\n    /// @notice Publishes Comment Post\n    /// @param newCid IPFS CID of the Post that is being published\n    function publishPost(string calldata newCid, uint256 rootId)\n        external\n        validPostId(rootId)\n    {\n        posts[rootId].comments.push(posts.length);\n        _publishValidPost(newCid);\n    }\n\n    /// @notice Mints token (License Associated NFT)\n    /// @param postId Id of target Post to be used for token minting\n    function mintToken(uint256 postId) external validPostId(postId) {\n        require(msg.sender == posts[postId].author);\n        _safeMint(msg.sender, counter);\n        tokenPost[counter] = postId;\n        posts[postId].tokens.push(counter);\n        counter++;\n    }\n\n    /// @notice Returns length of the posts list\n    function postsLenght() external view returns (uint256) {\n        return posts.length;\n    }\n\n    /// @notice Returns IPFS CID of a specific postId\n    /// @param postId Id of the specific Post\n    function postCid(uint256 postId)\n        external\n        view\n        validPostId(postId)\n        returns (string memory)\n    {\n        return posts[postId].cid;\n    }\n\n    /// @notice Returns author of a specific postId\n    /// @param postId Id of the specific Post\n    function postAuthor(uint256 postId)\n        external\n        view\n        validPostId(postId)\n        returns (address)\n    {\n        return posts[postId].author;\n    }\n\n    /// @notice Returns number of comments for that specific postId\n    /// @param postId Id of the specific Post\n    function postComments(uint256 postId)\n        external\n        view\n        validPostId(postId)\n        returns (uint256)\n    {\n        return posts[postId].comments.length;\n    }\n\n    /// @notice Returns list of comments for that specific postId\n    /// @param postId Id of the specific Post\n    function postCommentList(uint256 postId)\n        external\n        view\n        validPostId(postId)\n        returns (uint256[] memory)\n    {\n        return posts[postId].comments;\n    }\n\n    /// @notice Returns Id of a specific Comment\n    /// @param postId Id of the specific Post\n    /// @param commentNumber Number of the specific Comment\n    function commentId(uint256 postId, uint256 commentNumber)\n        external\n        view\n        validPostId(postId)\n        returns (uint256)\n    {\n        return posts[postId].comments[commentNumber];\n    }\n\n    /// @notice Returns number of tokens for that specific postId\n    /// @param postId Id of the specific Post\n    function postTokens(uint256 postId)\n        external\n        view\n        validPostId(postId)\n        returns (uint256)\n    {\n        return posts[postId].tokens.length;\n    }\n\n    /// @notice Returns list of tokens for that specific postId\n    /// @param postId Id of the specific Post\n    function postTokenList(uint256 postId)\n        external\n        view\n        validPostId(postId)\n        returns (uint256[] memory)\n    {\n        return posts[postId].tokens;\n    }\n\n    /// @notice Returns list of Posts written by a specific address\n    /// @param authorAddress Address of the specific author\n    function authorCollection(address authorAddress)\n        external\n        view\n        returns (uint256[] memory)\n    {\n        return collections[authorAddress];\n    }\n\n    /// @notice Puts token up for sale\n    /// @param tokenId Id of the token\n    /// @param askPrice Asking Price\n    function addSale(uint256 tokenId, uint256 askPrice)\n        external\n        OnlyTokenOwner(tokenId)\n    {\n        approve(address(this), tokenId);\n        price[tokenId] = askPrice;\n    }\n\n    /// @notice Removes token from sale\n    /// @param tokenId Id of the token\n    function removeSale(uint256 tokenId)\n        external\n        OnlyTokenOwner(tokenId)\n        HasPrice(tokenId)\n    {\n        approve(address(0), tokenId);\n        price[tokenId] = 0;\n    }\n\n    /// @notice Buys token\n    /// @param tokenId Id of the token\n    function buy(uint256 tokenId) external payable HasPrice(tokenId) {\n        require(msg.value >= price[tokenId], \"Not enough funds sent\");\n        require(msg.sender != ownerOf(tokenId), \"You already own this token\");\n        price[tokenId] = 0;\n        payable(ownerOf(tokenId)).transfer(msg.value);\n        IERC721(address(this)).safeTransferFrom(\n            ownerOf(tokenId),\n            msg.sender,\n            tokenId\n        );\n    }\n\n    /// @notice Returns token's price if its up for sale\n    /// @param tokenId Id of the token\n    function validPrice(uint256 tokenId)\n        external\n        view\n        HasPrice(tokenId)\n        returns (uint256)\n    {\n        require(getApproved(tokenId) == address(this));\n        return price[tokenId];\n    }\n\n    /// @notice Initiates auction\n    /// @param tokenId Id of the token being auctioned\n    /// @param minValue Minimal value accepted\n    /// @param increment Minimal incremental value\n    function startAuction(\n        uint256 tokenId,\n        uint256 minValue,\n        uint256 increment\n    ) external OnlyTokenOwner(tokenId) {\n        require(price[tokenId] == 0, \"Token is already for sale\");\n        transferFrom(msg.sender, address(this), tokenId);\n        uint256[] memory bids;\n        tokenAuctions[tokenId].push(auctions.length);\n        auctions.push(\n            Auction(\n                tokenId,\n                payable(msg.sender),\n                minValue,\n                increment,\n                (block.number + 270000),\n                address(0),\n                bids\n            )\n        );\n    }\n\n    /// @notice Places a bid for a specific Auction\n    /// @param auctionId Id of the specific Auction\n    function placeBid(uint256 auctionId) external payable {\n        require(auctions.length > auctionId);\n        require(auctions[auctionId].endBlock > block.number);\n        require(msg.sender != auctions[auctionId].seller);\n        require(msg.sender != auctions[auctionId].topBidder);\n        if (auctions[auctionId].bids.length > 0) {\n            require(\n                msg.value + funds[auctionId][msg.sender] >=\n                    auctions[auctionId].bids[\n                        auctions[auctionId].bids.length - 1\n                    ] +\n                        auctions[auctionId].increment\n            );\n        } else {\n            require(msg.value >= auctions[auctionId].minValue);\n        }\n        funds[auctionId][msg.sender] += msg.value;\n        auctions[auctionId].topBidder = msg.sender;\n        auctions[auctionId].bids.push(funds[auctionId][msg.sender]);\n    }\n\n    /// @notice Withdraw Auction funds for those who are not the topBidder\n    /// @param auctionId Id of the specific Auction\n    function withdrawFunds(uint256 auctionId) external EndedAuction(auctionId) {\n        require(msg.sender != auctions[auctionId].topBidder);\n        require(funds[auctionId][msg.sender] > 0);\n        uint256 fund = funds[auctionId][msg.sender];\n        funds[auctionId][msg.sender] = 0;\n        payable(msg.sender).transfer(fund);\n    }\n\n    /// @notice Withdraw Auction assets for the topBidder and seller\n    /// @param auctionId Id of the specific Auction\n    function withdrawPrize(uint256 auctionId) external EndedAuction(auctionId) {\n        require(\n            msg.sender == auctions[auctionId].seller ||\n                msg.sender == auctions[auctionId].topBidder\n        );\n        if (auctions[auctionId].topBidder != address(0)) {\n            require(funds[auctionId][auctions[auctionId].topBidder] != 0);\n            uint256 fund = funds[auctionId][auctions[auctionId].topBidder];\n            funds[auctionId][auctions[auctionId].topBidder] = 0;\n            auctions[auctionId].seller.transfer(fund);\n            IERC721(address(this)).safeTransferFrom(\n                address(this),\n                auctions[auctionId].topBidder,\n                auctions[auctionId].tokenId\n            );\n        } else {\n            IERC721(address(this)).safeTransferFrom(\n                address(this),\n                auctions[auctionId].seller,\n                auctions[auctionId].tokenId\n            );\n        }\n    }\n\n    /// @notice Returns list of historic Auction Ids for that token Id\n    /// @param tokenId Id of the token being queried\n    function tokenAuctionCollection(uint256 tokenId)\n        external\n        view\n        returns (uint256[] memory)\n    {\n        return tokenAuctions[tokenId];\n    }\n\n    /// @notice Returns length of auctions\n    function auctionsLenght() external view returns (uint256) {\n        return auctions.length;\n    }\n\n    /// @notice Returns token Id of the auctionId\n    /// @param auctionId Id of the Auction being queried\n    function auctionTokenId(uint256 auctionId) external view returns (uint256) {\n        return auctions[auctionId].tokenId;\n    }\n\n    /// @notice Returns seller's address of the auctionId\n    /// @param auctionId Id of the Auction being queried\n    function auctionSeller(uint256 auctionId) external view returns (address) {\n        return auctions[auctionId].seller;\n    }\n\n    /// @notice Returns minValue of the auctionId\n    /// @param auctionId Id of the Auction being queried\n    function auctionMinValue(uint256 auctionId)\n        external\n        view\n        returns (uint256)\n    {\n        return auctions[auctionId].minValue;\n    }\n\n    /// @notice Returns increment of the auctionId\n    /// @param auctionId Id of the Auction being queried\n    function auctionIncrement(uint256 auctionId)\n        external\n        view\n        returns (uint256)\n    {\n        return auctions[auctionId].increment;\n    }\n\n    /// @notice Returns blocks left (~time left) of the auctionId\n    /// @param auctionId Id of the Auction being queried\n    function auctionTimeLeft(uint256 auctionId)\n        external\n        view\n        returns (uint256)\n    {\n        if (auctions[auctionId].endBlock > block.number) {\n            return (auctions[auctionId].endBlock - block.number);\n        } else {\n            return 0;\n        }\n    }\n\n    /// @notice Returns topBidder's address of the auctionId\n    /// @param auctionId Id of the Auction being queried\n    function auctionTopBidder(uint256 auctionId)\n        external\n        view\n        returns (address)\n    {\n        return auctions[auctionId].topBidder;\n    }\n\n    /// @notice Returns list of bids of the auctionId\n    /// @param auctionId Id of the Auction being queried\n    function auctionBids(uint256 auctionId)\n        external\n        view\n        returns (uint256[] memory)\n    {\n        return auctions[auctionId].bids;\n    }\n}\n",
  "sourcePath": "/home/mariomazzaferro/projects/cryptoPrompts/contracts/CryptoPosts.sol",
  "compiler": {
    "name": "solc",
    "version": "0.8.0+commit.c7dfd78e.Emscripten.clang"
  },
  "schemaVersion": "3.4.1",
  "updatedAt": "2022-03-10T20:48:01.457Z",
  "networkType": "ethereum",
  "devdoc": {
    "author": "Mario Mazzaferro",
    "kind": "dev",
    "methods": {
      "addSale(uint256,uint256)": {
        "params": {
          "askPrice": "Asking Price",
          "tokenId": "Id of the token"
        }
      },
      "approve(address,uint256)": {
        "details": "See {IERC721-approve}."
      },
      "auctionBids(uint256)": {
        "params": {
          "auctionId": "Id of the Auction being queried"
        }
      },
      "auctionIncrement(uint256)": {
        "params": {
          "auctionId": "Id of the Auction being queried"
        }
      },
      "auctionMinValue(uint256)": {
        "params": {
          "auctionId": "Id of the Auction being queried"
        }
      },
      "auctionSeller(uint256)": {
        "params": {
          "auctionId": "Id of the Auction being queried"
        }
      },
      "auctionTimeLeft(uint256)": {
        "params": {
          "auctionId": "Id of the Auction being queried"
        }
      },
      "auctionTokenId(uint256)": {
        "params": {
          "auctionId": "Id of the Auction being queried"
        }
      },
      "auctionTopBidder(uint256)": {
        "params": {
          "auctionId": "Id of the Auction being queried"
        }
      },
      "authorCollection(address)": {
        "params": {
          "authorAddress": "Address of the specific author"
        }
      },
      "balanceOf(address)": {
        "details": "See {IERC721-balanceOf}."
      },
      "buy(uint256)": {
        "params": {
          "tokenId": "Id of the token"
        }
      },
      "commentId(uint256,uint256)": {
        "params": {
          "commentNumber": "Number of the specific Comment",
          "postId": "Id of the specific Post"
        }
      },
      "getApproved(uint256)": {
        "details": "See {IERC721-getApproved}."
      },
      "isApprovedForAll(address,address)": {
        "details": "See {IERC721-isApprovedForAll}."
      },
      "mintToken(uint256)": {
        "params": {
          "postId": "Id of target Post to be used for token minting"
        }
      },
      "name()": {
        "details": "See {IERC721Metadata-name}."
      },
      "ownerOf(uint256)": {
        "details": "See {IERC721-ownerOf}."
      },
      "placeBid(uint256)": {
        "params": {
          "auctionId": "Id of the specific Auction"
        }
      },
      "postAuthor(uint256)": {
        "params": {
          "postId": "Id of the specific Post"
        }
      },
      "postCid(uint256)": {
        "params": {
          "postId": "Id of the specific Post"
        }
      },
      "postCommentList(uint256)": {
        "params": {
          "postId": "Id of the specific Post"
        }
      },
      "postComments(uint256)": {
        "params": {
          "postId": "Id of the specific Post"
        }
      },
      "postTokenList(uint256)": {
        "params": {
          "postId": "Id of the specific Post"
        }
      },
      "postTokens(uint256)": {
        "params": {
          "postId": "Id of the specific Post"
        }
      },
      "publishPost(string)": {
        "params": {
          "newCid": "IPFS CID of the Post that is being published"
        }
      },
      "publishPost(string,uint256)": {
        "params": {
          "newCid": "IPFS CID of the Post that is being published"
        }
      },
      "removeSale(uint256)": {
        "params": {
          "tokenId": "Id of the token"
        }
      },
      "safeTransferFrom(address,address,uint256)": {
        "details": "See {IERC721-safeTransferFrom}."
      },
      "safeTransferFrom(address,address,uint256,bytes)": {
        "details": "See {IERC721-safeTransferFrom}."
      },
      "setApprovalForAll(address,bool)": {
        "details": "See {IERC721-setApprovalForAll}."
      },
      "startAuction(uint256,uint256,uint256)": {
        "params": {
          "increment": "Minimal incremental value",
          "minValue": "Minimal value accepted",
          "tokenId": "Id of the token being auctioned"
        }
      },
      "supportsInterface(bytes4)": {
        "details": "See {IERC165-supportsInterface}."
      },
      "symbol()": {
        "details": "See {IERC721Metadata-symbol}."
      },
      "tokenAuctionCollection(uint256)": {
        "params": {
          "tokenId": "Id of the token being queried"
        }
      },
      "tokenURI(uint256)": {
        "params": {
          "tokenId": "Id of the specific Token"
        }
      },
      "transferFrom(address,address,uint256)": {
        "details": "See {IERC721-transferFrom}."
      },
      "validPrice(uint256)": {
        "params": {
          "tokenId": "Id of the token"
        }
      },
      "withdrawFunds(uint256)": {
        "params": {
          "auctionId": "Id of the specific Auction"
        }
      },
      "withdrawPrize(uint256)": {
        "params": {
          "auctionId": "Id of the specific Auction"
        }
      }
    },
    "title": "Crypto Posts",
    "version": 1
  },
  "userdoc": {
    "kind": "user",
    "methods": {
      "addSale(uint256,uint256)": {
        "notice": "Puts token up for sale"
      },
      "auctionBids(uint256)": {
        "notice": "Returns list of bids of the auctionId"
      },
      "auctionIncrement(uint256)": {
        "notice": "Returns increment of the auctionId"
      },
      "auctionMinValue(uint256)": {
        "notice": "Returns minValue of the auctionId"
      },
      "auctionSeller(uint256)": {
        "notice": "Returns seller's address of the auctionId"
      },
      "auctionTimeLeft(uint256)": {
        "notice": "Returns blocks left (~time left) of the auctionId"
      },
      "auctionTokenId(uint256)": {
        "notice": "Returns token Id of the auctionId"
      },
      "auctionTopBidder(uint256)": {
        "notice": "Returns topBidder's address of the auctionId"
      },
      "auctions(uint256)": {
        "notice": "List of all Auctions ordered by Auction Id ascending order"
      },
      "auctionsLenght()": {
        "notice": "Returns length of auctions"
      },
      "authorCollection(address)": {
        "notice": "Returns list of Posts written by a specific address"
      },
      "buy(uint256)": {
        "notice": "Buys token"
      },
      "collections(address,uint256)": {
        "notice": "Relates Writer's Address to its respective Post Collection"
      },
      "commentId(uint256,uint256)": {
        "notice": "Returns Id of a specific Comment"
      },
      "constructor": {
        "notice": "Sets initial values for the ERC-721 standard"
      },
      "counter()": {
        "notice": "Tracks number of minted tokens"
      },
      "funds(uint256,address)": {
        "notice": "Relates Auction Id to it's mapping of bidders to funds"
      },
      "mintToken(uint256)": {
        "notice": "Mints token (License Associated NFT)"
      },
      "placeBid(uint256)": {
        "notice": "Places a bid for a specific Auction"
      },
      "postAuthor(uint256)": {
        "notice": "Returns author of a specific postId"
      },
      "postCid(uint256)": {
        "notice": "Returns IPFS CID of a specific postId"
      },
      "postCommentList(uint256)": {
        "notice": "Returns list of comments for that specific postId"
      },
      "postComments(uint256)": {
        "notice": "Returns number of comments for that specific postId"
      },
      "postTokenList(uint256)": {
        "notice": "Returns list of tokens for that specific postId"
      },
      "postTokens(uint256)": {
        "notice": "Returns number of tokens for that specific postId"
      },
      "posts(uint256)": {
        "notice": "List of all Posts ordered by Post Id ascending order"
      },
      "postsLenght()": {
        "notice": "Returns length of the posts list"
      },
      "price(uint256)": {
        "notice": "Relates token Id to its respective price"
      },
      "publishPost(string)": {
        "notice": "Publishes Post"
      },
      "publishPost(string,uint256)": {
        "notice": "Publishes Comment Post"
      },
      "removeSale(uint256)": {
        "notice": "Removes token from sale"
      },
      "startAuction(uint256,uint256,uint256)": {
        "notice": "Initiates auction"
      },
      "tokenAuctionCollection(uint256)": {
        "notice": "Returns list of historic Auction Ids for that token Id"
      },
      "tokenAuctions(uint256,uint256)": {
        "notice": "Relates token Ids to their historic Auction Ids"
      },
      "tokenPost(uint256)": {
        "notice": "Relates token Id to its respective Post"
      },
      "tokenURI(uint256)": {
        "notice": "Returns MetadataURI for that specific tokenId"
      },
      "validPrice(uint256)": {
        "notice": "Returns token's price if its up for sale"
      },
      "withdrawFunds(uint256)": {
        "notice": "Withdraw Auction funds for those who are not the topBidder"
      },
      "withdrawPrize(uint256)": {
        "notice": "Withdraw Auction assets for the topBidder and seller"
      }
    },
    "notice": "Manage Copyright Permissions through License Associated NFTs (LANs)",
    "version": 1
  }
}